{
  "contractName": "LandRegistry",
  "abi": [
    {
      "inputs": [],
      "stateMutability": "nonpayable",
      "type": "constructor"
    },
    {
      "anonymous": false,
      "inputs": [
        {
          "indexed": true,
          "internalType": "address",
          "name": "owner",
          "type": "address"
        },
        {
          "indexed": true,
          "internalType": "address",
          "name": "approved",
          "type": "address"
        },
        {
          "indexed": true,
          "internalType": "uint256",
          "name": "tokenId",
          "type": "uint256"
        }
      ],
      "name": "Approval",
      "type": "event"
    },
    {
      "anonymous": false,
      "inputs": [
        {
          "indexed": true,
          "internalType": "address",
          "name": "owner",
          "type": "address"
        },
        {
          "indexed": true,
          "internalType": "address",
          "name": "operator",
          "type": "address"
        },
        {
          "indexed": false,
          "internalType": "bool",
          "name": "approved",
          "type": "bool"
        }
      ],
      "name": "ApprovalForAll",
      "type": "event"
    },
    {
      "anonymous": false,
      "inputs": [
        {
          "indexed": false,
          "internalType": "uint256",
          "name": "_fromTokenId",
          "type": "uint256"
        },
        {
          "indexed": false,
          "internalType": "uint256",
          "name": "_toTokenId",
          "type": "uint256"
        }
      ],
      "name": "BatchMetadataUpdate",
      "type": "event"
    },
    {
      "anonymous": false,
      "inputs": [
        {
          "indexed": false,
          "internalType": "uint256",
          "name": "landId",
          "type": "uint256"
        },
        {
          "indexed": false,
          "internalType": "address",
          "name": "newOwner",
          "type": "address"
        },
        {
          "indexed": false,
          "internalType": "uint256",
          "name": "price",
          "type": "uint256"
        }
      ],
      "name": "LandBought",
      "type": "event"
    },
    {
      "anonymous": false,
      "inputs": [
        {
          "indexed": false,
          "internalType": "uint256",
          "name": "landId",
          "type": "uint256"
        },
        {
          "indexed": false,
          "internalType": "address",
          "name": "owner",
          "type": "address"
        },
        {
          "indexed": false,
          "internalType": "string",
          "name": "location",
          "type": "string"
        },
        {
          "indexed": false,
          "internalType": "uint256",
          "name": "price",
          "type": "uint256"
        },
        {
          "indexed": false,
          "internalType": "string",
          "name": "cid",
          "type": "string"
        },
        {
          "indexed": false,
          "internalType": "uint256",
          "name": "tokenCount",
          "type": "uint256"
        }
      ],
      "name": "LandRegistered",
      "type": "event"
    },
    {
      "anonymous": false,
      "inputs": [
        {
          "indexed": false,
          "internalType": "uint256",
          "name": "landId",
          "type": "uint256"
        },
        {
          "indexed": false,
          "internalType": "address",
          "name": "newOwner",
          "type": "address"
        },
        {
          "indexed": false,
          "internalType": "uint256",
          "name": "tokenId",
          "type": "uint256"
        },
        {
          "indexed": false,
          "internalType": "uint256",
          "name": "price",
          "type": "uint256"
        }
      ],
      "name": "LandTokenBought",
      "type": "event"
    },
    {
      "anonymous": false,
      "inputs": [
        {
          "indexed": false,
          "internalType": "uint256",
          "name": "_tokenId",
          "type": "uint256"
        }
      ],
      "name": "MetadataUpdate",
      "type": "event"
    },
    {
      "anonymous": false,
      "inputs": [
        {
          "indexed": true,
          "internalType": "uint256",
          "name": "tokenId",
          "type": "uint256"
        },
        {
          "indexed": true,
          "internalType": "uint256",
          "name": "landId",
          "type": "uint256"
        },
        {
          "indexed": false,
          "internalType": "address",
          "name": "owner",
          "type": "address"
        },
        {
          "indexed": false,
          "internalType": "string",
          "name": "tokenURI",
          "type": "string"
        }
      ],
      "name": "NFTMinted",
      "type": "event"
    },
    {
      "anonymous": false,
      "inputs": [
        {
          "indexed": true,
          "internalType": "address",
          "name": "previousOwner",
          "type": "address"
        },
        {
          "indexed": true,
          "internalType": "address",
          "name": "newOwner",
          "type": "address"
        }
      ],
      "name": "OwnershipTransferred",
      "type": "event"
    },
    {
      "anonymous": false,
      "inputs": [
        {
          "indexed": true,
          "internalType": "address",
          "name": "from",
          "type": "address"
        },
        {
          "indexed": true,
          "internalType": "address",
          "name": "to",
          "type": "address"
        },
        {
          "indexed": true,
          "internalType": "uint256",
          "name": "tokenId",
          "type": "uint256"
        }
      ],
      "name": "Transfer",
      "type": "event"
    },
    {
      "inputs": [
        {
          "internalType": "address",
          "name": "to",
          "type": "address"
        },
        {
          "internalType": "uint256",
          "name": "tokenId",
          "type": "uint256"
        }
      ],
      "name": "approve",
      "outputs": [],
      "stateMutability": "nonpayable",
      "type": "function"
    },
    {
      "inputs": [
        {
          "internalType": "address",
          "name": "owner",
          "type": "address"
        }
      ],
      "name": "balanceOf",
      "outputs": [
        {
          "internalType": "uint256",
          "name": "",
          "type": "uint256"
        }
      ],
      "stateMutability": "view",
      "type": "function",
      "constant": true
    },
    {
      "inputs": [
        {
          "internalType": "uint256",
          "name": "tokenId",
          "type": "uint256"
        }
      ],
      "name": "getApproved",
      "outputs": [
        {
          "internalType": "address",
          "name": "",
          "type": "address"
        }
      ],
      "stateMutability": "view",
      "type": "function",
      "constant": true
    },
    {
      "inputs": [
        {
          "internalType": "address",
          "name": "owner",
          "type": "address"
        },
        {
          "internalType": "address",
          "name": "operator",
          "type": "address"
        }
      ],
      "name": "isApprovedForAll",
      "outputs": [
        {
          "internalType": "bool",
          "name": "",
          "type": "bool"
        }
      ],
      "stateMutability": "view",
      "type": "function",
      "constant": true
    },
    {
      "inputs": [],
      "name": "landCount",
      "outputs": [
        {
          "internalType": "uint256",
          "name": "",
          "type": "uint256"
        }
      ],
      "stateMutability": "view",
      "type": "function",
      "constant": true
    },
    {
      "inputs": [
        {
          "internalType": "uint256",
          "name": "",
          "type": "uint256"
        }
      ],
      "name": "lands",
      "outputs": [
        {
          "internalType": "address",
          "name": "owner",
          "type": "address"
        },
        {
          "internalType": "string",
          "name": "location",
          "type": "string"
        },
        {
          "internalType": "uint256",
          "name": "price",
          "type": "uint256"
        },
        {
          "internalType": "uint256",
          "name": "pricePerToken",
          "type": "uint256"
        },
        {
          "internalType": "bool",
          "name": "isAvailable",
          "type": "bool"
        },
        {
          "internalType": "string",
          "name": "cid",
          "type": "string"
        },
        {
          "internalType": "uint256",
          "name": "tokenCount",
          "type": "uint256"
        }
      ],
      "stateMutability": "view",
      "type": "function",
      "constant": true
    },
    {
      "inputs": [],
      "name": "name",
      "outputs": [
        {
          "internalType": "string",
          "name": "",
          "type": "string"
        }
      ],
      "stateMutability": "view",
      "type": "function",
      "constant": true
    },
    {
      "inputs": [],
      "name": "owner",
      "outputs": [
        {
          "internalType": "address",
          "name": "",
          "type": "address"
        }
      ],
      "stateMutability": "view",
      "type": "function",
      "constant": true
    },
    {
      "inputs": [
        {
          "internalType": "uint256",
          "name": "tokenId",
          "type": "uint256"
        }
      ],
      "name": "ownerOf",
      "outputs": [
        {
          "internalType": "address",
          "name": "",
          "type": "address"
        }
      ],
      "stateMutability": "view",
      "type": "function",
      "constant": true
    },
    {
      "inputs": [],
      "name": "registrationFee",
      "outputs": [
        {
          "internalType": "uint256",
          "name": "",
          "type": "uint256"
        }
      ],
      "stateMutability": "view",
      "type": "function",
      "constant": true
    },
    {
      "inputs": [],
      "name": "renounceOwnership",
      "outputs": [],
      "stateMutability": "nonpayable",
      "type": "function"
    },
    {
      "inputs": [
        {
          "internalType": "address",
          "name": "from",
          "type": "address"
        },
        {
          "internalType": "address",
          "name": "to",
          "type": "address"
        },
        {
          "internalType": "uint256",
          "name": "tokenId",
          "type": "uint256"
        }
      ],
      "name": "safeTransferFrom",
      "outputs": [],
      "stateMutability": "nonpayable",
      "type": "function"
    },
    {
      "inputs": [
        {
          "internalType": "address",
          "name": "from",
          "type": "address"
        },
        {
          "internalType": "address",
          "name": "to",
          "type": "address"
        },
        {
          "internalType": "uint256",
          "name": "tokenId",
          "type": "uint256"
        },
        {
          "internalType": "bytes",
          "name": "data",
          "type": "bytes"
        }
      ],
      "name": "safeTransferFrom",
      "outputs": [],
      "stateMutability": "nonpayable",
      "type": "function"
    },
    {
      "inputs": [
        {
          "internalType": "address",
          "name": "operator",
          "type": "address"
        },
        {
          "internalType": "bool",
          "name": "approved",
          "type": "bool"
        }
      ],
      "name": "setApprovalForAll",
      "outputs": [],
      "stateMutability": "nonpayable",
      "type": "function"
    },
    {
      "inputs": [
        {
          "internalType": "bytes4",
          "name": "interfaceId",
          "type": "bytes4"
        }
      ],
      "name": "supportsInterface",
      "outputs": [
        {
          "internalType": "bool",
          "name": "",
          "type": "bool"
        }
      ],
      "stateMutability": "view",
      "type": "function",
      "constant": true
    },
    {
      "inputs": [],
      "name": "symbol",
      "outputs": [
        {
          "internalType": "string",
          "name": "",
          "type": "string"
        }
      ],
      "stateMutability": "view",
      "type": "function",
      "constant": true
    },
    {
      "inputs": [],
      "name": "tokenIdCounter",
      "outputs": [
        {
          "internalType": "uint256",
          "name": "",
          "type": "uint256"
        }
      ],
      "stateMutability": "view",
      "type": "function",
      "constant": true
    },
    {
      "inputs": [
        {
          "internalType": "uint256",
          "name": "tokenId",
          "type": "uint256"
        }
      ],
      "name": "tokenURI",
      "outputs": [
        {
          "internalType": "string",
          "name": "",
          "type": "string"
        }
      ],
      "stateMutability": "view",
      "type": "function",
      "constant": true
    },
    {
      "inputs": [
        {
          "internalType": "address",
          "name": "from",
          "type": "address"
        },
        {
          "internalType": "address",
          "name": "to",
          "type": "address"
        },
        {
          "internalType": "uint256",
          "name": "tokenId",
          "type": "uint256"
        }
      ],
      "name": "transferFrom",
      "outputs": [],
      "stateMutability": "nonpayable",
      "type": "function"
    },
    {
      "inputs": [
        {
          "internalType": "address",
          "name": "newOwner",
          "type": "address"
        }
      ],
      "name": "transferOwnership",
      "outputs": [],
      "stateMutability": "nonpayable",
      "type": "function"
    },
    {
      "inputs": [
        {
          "internalType": "string",
          "name": "_location",
          "type": "string"
        },
        {
          "internalType": "uint256",
          "name": "_price",
          "type": "uint256"
        },
        {
          "internalType": "uint256",
          "name": "_pricePerToken",
          "type": "uint256"
        },
        {
          "internalType": "string",
          "name": "_cid",
          "type": "string"
        },
        {
          "internalType": "uint256",
          "name": "_tokenCount",
          "type": "uint256"
        }
      ],
      "name": "registerLand",
      "outputs": [],
      "stateMutability": "payable",
      "type": "function",
      "payable": true
    },
    {
      "inputs": [
        {
          "internalType": "uint256",
          "name": "_landId",
          "type": "uint256"
        },
        {
          "internalType": "uint256",
          "name": "_tokensToBuy",
          "type": "uint256"
        }
      ],
      "name": "buyLand",
      "outputs": [],
      "stateMutability": "payable",
      "type": "function",
      "payable": true
    },
    {
      "inputs": [
        {
          "internalType": "uint256",
          "name": "_landId",
          "type": "uint256"
        }
      ],
      "name": "getLand",
      "outputs": [
        {
          "internalType": "address",
          "name": "",
          "type": "address"
        },
        {
          "internalType": "string",
          "name": "",
          "type": "string"
        },
        {
          "internalType": "uint256",
          "name": "",
          "type": "uint256"
        },
        {
          "internalType": "uint256",
          "name": "",
          "type": "uint256"
        },
        {
          "internalType": "bool",
          "name": "",
          "type": "bool"
        },
        {
          "internalType": "string",
          "name": "",
          "type": "string"
        },
        {
          "internalType": "uint256",
          "name": "",
          "type": "uint256"
        },
        {
          "internalType": "uint256[]",
          "name": "",
          "type": "uint256[]"
        }
      ],
      "stateMutability": "view",
      "type": "function",
      "constant": true
    },
    {
      "inputs": [
        {
          "internalType": "uint256",
          "name": "_newFee",
          "type": "uint256"
        }
      ],
      "name": "setRegistrationFee",
      "outputs": [],
      "stateMutability": "nonpayable",
      "type": "function"
    },
    {
      "inputs": [],
      "name": "withdraw",
      "outputs": [],
      "stateMutability": "nonpayable",
      "type": "function"
    }
  ],
  "bytecode": "0x6080604052662386f26fc1000060085560006009556001600a553480156200002657600080fd5b506040518060400160405280600781526020017f4c616e644e4654000000000000000000000000000000000000000000000000008152506040518060400160405280600381526020017f4c4e4400000000000000000000000000000000000000000000000000000000008152508160009081620000a4919062000427565b508060019081620000b6919062000427565b505050620000d9620000cd620000df60201b60201c565b620000e760201b60201c565b6200050e565b600033905090565b6000600760009054906101000a900473ffffffffffffffffffffffffffffffffffffffff16905081600760006101000a81548173ffffffffffffffffffffffffffffffffffffffff021916908373ffffffffffffffffffffffffffffffffffffffff1602179055508173ffffffffffffffffffffffffffffffffffffffff168173ffffffffffffffffffffffffffffffffffffffff167f8be0079c531659141344cd1fd0a4f28419497f9722a3daafe3b4186f6b6457e060405160405180910390a35050565b600081519050919050565b7f4e487b7100000000000000000000000000000000000000000000000000000000600052604160045260246000fd5b7f4e487b7100000000000000000000000000000000000000000000000000000000600052602260045260246000fd5b600060028204905060018216806200022f57607f821691505b602082108103620002455762000244620001e7565b5b50919050565b60008190508160005260206000209050919050565b60006020601f8301049050919050565b600082821b905092915050565b600060088302620002af7fffffffffffffffffffffffffffffffffffffffffffffffffffffffffffffffff8262000270565b620002bb868362000270565b95508019841693508086168417925050509392505050565b6000819050919050565b6000819050919050565b60006200030862000302620002fc84620002d3565b620002dd565b620002d3565b9050919050565b6000819050919050565b6200032483620002e7565b6200033c62000333826200030f565b8484546200027d565b825550505050565b600090565b6200035362000344565b6200036081848462000319565b505050565b5b8181101562000388576200037c60008262000349565b60018101905062000366565b5050565b601f821115620003d757620003a1816200024b565b620003ac8462000260565b81016020851015620003bc578190505b620003d4620003cb8562000260565b83018262000365565b50505b505050565b600082821c905092915050565b6000620003fc60001984600802620003dc565b1980831691505092915050565b6000620004178383620003e9565b9150826002028217905092915050565b6200043282620001ad565b67ffffffffffffffff8111156200044e576200044d620001b8565b5b6200045a825462000216565b620004678282856200038c565b600060209050601f8311600181146200049f57600084156200048a578287015190505b62000496858262000409565b86555062000506565b601f198416620004af866200024b565b60005b82811015620004d957848901518255600182019150602085019450602081019050620004b2565b86831015620004f95784890151620004f5601f891682620003e9565b8355505b6001600288020188555050505b505050505050565b614826806200051e6000396000f3fe6080604052600436106101665760003560e01c80638da5cb5b116100d1578063c320c7271161008a578063e261f1e511610064578063e261f1e5146104fa578063e985e9c51461053d578063f02dd53f1461057a578063f2fde38b146105be57610166565b8063c320c72714610469578063c87b56dd14610492578063d7bce658146104cf57610166565b80638da5cb5b1461037a57806395d89b41146103a557806398bdf6f5146103d0578063a22cb465146103fb578063b88d4fde14610424578063be977cd41461044d57610166565b80633ccfd60b116101235780633ccfd60b1461028d57806342842e0e146102a45780635be69c76146102cd5780636352211e146102e957806370a0823114610326578063715018a61461036357610166565b806301ffc9a71461016b57806306fdde03146101a8578063081812fc146101d3578063095ea7b31461021057806314c44e091461023957806323b872dd14610264575b600080fd5b34801561017757600080fd5b50610192600480360381019061018d9190612c6b565b6105e7565b60405161019f9190612cb3565b60405180910390f35b3480156101b457600080fd5b506101bd610648565b6040516101ca9190612d5e565b60405180910390f35b3480156101df57600080fd5b506101fa60048036038101906101f59190612db6565b6106da565b6040516102079190612e24565b60405180910390f35b34801561021c57600080fd5b5061023760048036038101906102329190612e6b565b610720565b005b34801561024557600080fd5b5061024e610837565b60405161025b9190612eba565b60405180910390f35b34801561027057600080fd5b5061028b60048036038101906102869190612ed5565b61083d565b005b34801561029957600080fd5b506102a261089d565b005b3480156102b057600080fd5b506102cb60048036038101906102c69190612ed5565b6109a4565b005b6102e760048036038101906102e2919061305d565b6109c4565b005b3480156102f557600080fd5b50610310600480360381019061030b9190612db6565b610d01565b60405161031d9190612e24565b60405180910390f35b34801561033257600080fd5b5061034d60048036038101906103489190613110565b610d87565b60405161035a9190612eba565b60405180910390f35b34801561036f57600080fd5b50610378610e3e565b005b34801561038657600080fd5b5061038f610e52565b60405161039c9190612e24565b60405180910390f35b3480156103b157600080fd5b506103ba610e7c565b6040516103c79190612d5e565b60405180910390f35b3480156103dc57600080fd5b506103e5610f0e565b6040516103f29190612eba565b60405180910390f35b34801561040757600080fd5b50610422600480360381019061041d9190613169565b610f14565b005b34801561043057600080fd5b5061044b6004803603810190610446919061324a565b610f2a565b005b610467600480360381019061046291906132cd565b610f8c565b005b34801561047557600080fd5b50610490600480360381019061048b9190612db6565b61147c565b005b34801561049e57600080fd5b506104b960048036038101906104b49190612db6565b61148e565b6040516104c69190612d5e565b60405180910390f35b3480156104db57600080fd5b506104e46115a0565b6040516104f19190612eba565b60405180910390f35b34801561050657600080fd5b50610521600480360381019061051c9190612db6565b6115a6565b604051610534979695949392919061330d565b60405180910390f35b34801561054957600080fd5b50610564600480360381019061055f919061338a565b611725565b6040516105719190612cb3565b60405180910390f35b34801561058657600080fd5b506105a1600480360381019061059c9190612db6565b6117b9565b6040516105b5989796959493929190613488565b60405180910390f35b3480156105ca57600080fd5b506105e560048036038101906105e09190613110565b611a8b565b005b6000634906490660e01b7bffffffffffffffffffffffffffffffffffffffffffffffffffffffff1916827bffffffffffffffffffffffffffffffffffffffffffffffffffffffff19161480610641575061064082611b0e565b5b9050919050565b6060600080546106579061354a565b80601f01602080910402602001604051908101604052809291908181526020018280546106839061354a565b80156106d05780601f106106a5576101008083540402835291602001916106d0565b820191906000526020600020905b8154815290600101906020018083116106b357829003601f168201915b5050505050905090565b60006106e582611bf0565b6004600083815260200190815260200160002060009054906101000a900473ffffffffffffffffffffffffffffffffffffffff169050919050565b600061072b82610d01565b90508073ffffffffffffffffffffffffffffffffffffffff168373ffffffffffffffffffffffffffffffffffffffff160361079b576040517f08c379a0000000000000000000000000000000000000000000000000000000008152600401610792906135ed565b60405180910390fd5b8073ffffffffffffffffffffffffffffffffffffffff166107ba611c3b565b73ffffffffffffffffffffffffffffffffffffffff1614806107e957506107e8816107e3611c3b565b611725565b5b610828576040517f08c379a000000000000000000000000000000000000000000000000000000000815260040161081f9061367f565b60405180910390fd5b6108328383611c43565b505050565b60085481565b61084e610848611c3b565b82611cfc565b61088d576040517f08c379a000000000000000000000000000000000000000000000000000000000815260040161088490613711565b60405180910390fd5b610898838383611d91565b505050565b6108a561208a565b6000479050600081116108ed576040517f08c379a00000000000000000000000000000000000000000000000000000000081526004016108e49061377d565b60405180910390fd5b60006108f7610e52565b73ffffffffffffffffffffffffffffffffffffffff168260405161091a906137ce565b60006040518083038185875af1925050503d8060008114610957576040519150601f19603f3d011682016040523d82523d6000602084013e61095c565b606091505b50509050806109a0576040517f08c379a00000000000000000000000000000000000000000000000000000000081526004016109979061382f565b60405180910390fd5b5050565b6109bf83838360405180602001604052806000815250610f2a565b505050565b6008543414610a08576040517f08c379a00000000000000000000000000000000000000000000000000000000081526004016109ff906138c1565b60405180910390fd5b7f0f6c2a5ef0725496d4185a3b20c8dad00524532056afe6a4d7014cbaa983569b6009543387878686604051610a43969594939291906138e1565b60405180910390a160008167ffffffffffffffff811115610a6757610a66612f32565b5b604051908082528060200260200182016040528015610a955781602001602082028036833780820191505090505b5090506000821115610b915760008411610ae4576040517f08c379a0000000000000000000000000000000000000000000000000000000008152600401610adb9061399c565b60405180910390fd5b60005b82811015610b8f576000600a6000815480929190610b04906139eb565b919050559050610b143382612108565b610b1e8186612325565b80838381518110610b3257610b31613a33565b5b602002602001018181525050600954817f894881ae3bd36d98281013ef1fe95333ce447d415f933feceedd695d9175e6373388604051610b73929190613a62565b60405180910390a3508080610b87906139eb565b915050610ae7565b505b60096000815480929190610ba4906139eb565b91905055506000808311610bbb5760008611610bbe565b60015b90506040518061010001604052803373ffffffffffffffffffffffffffffffffffffffff168152602001888152602001878152602001868152602001821515815260200185815260200184815260200183815250600b6000600954815260200190815260200160002060008201518160000160006101000a81548173ffffffffffffffffffffffffffffffffffffffff021916908373ffffffffffffffffffffffffffffffffffffffff1602179055506020820151816001019081610c839190613c3e565b50604082015181600201556060820151816003015560808201518160040160006101000a81548160ff02191690831515021790555060a0820151816005019081610ccd9190613c3e565b5060c0820151816006015560e0820151816007019080519060200190610cf4929190612b95565b5090505050505050505050565b600080610d0d836123c9565b9050600073ffffffffffffffffffffffffffffffffffffffff168173ffffffffffffffffffffffffffffffffffffffff1603610d7e576040517f08c379a0000000000000000000000000000000000000000000000000000000008152600401610d7590613d5c565b60405180910390fd5b80915050919050565b60008073ffffffffffffffffffffffffffffffffffffffff168273ffffffffffffffffffffffffffffffffffffffff1603610df7576040517f08c379a0000000000000000000000000000000000000000000000000000000008152600401610dee90613dee565b60405180910390fd5b600360008373ffffffffffffffffffffffffffffffffffffffff1673ffffffffffffffffffffffffffffffffffffffff168152602001908152602001600020549050919050565b610e4661208a565b610e506000612406565b565b6000600760009054906101000a900473ffffffffffffffffffffffffffffffffffffffff16905090565b606060018054610e8b9061354a565b80601f0160208091040260200160405190810160405280929190818152602001828054610eb79061354a565b8015610f045780601f10610ed957610100808354040283529160200191610f04565b820191906000526020600020905b815481529060010190602001808311610ee757829003601f168201915b5050505050905090565b600a5481565b610f26610f1f611c3b565b83836124cc565b5050565b610f3b610f35611c3b565b83611cfc565b610f7a576040517f08c379a0000000000000000000000000000000000000000000000000000000008152600401610f7190613711565b60405180910390fd5b610f8684848484612638565b50505050565b600082118015610f9e57506009548211155b610fdd576040517f08c379a0000000000000000000000000000000000000000000000000000000008152600401610fd490613e5a565b60405180910390fd5b6000600b600084815260200190815260200160002090508060040160009054906101000a900460ff16611045576040517f08c379a000000000000000000000000000000000000000000000000000000000815260040161103c90613ec6565b60405180910390fd5b60008160000160009054906101000a900473ffffffffffffffffffffffffffffffffffffffff1690506000826006015411156112a05760008311801561108f575081600601548311155b6110ce576040517f08c379a00000000000000000000000000000000000000000000000000000000081526004016110c590613f32565b60405180910390fd5b60008260030154846110e09190613f52565b9050803414611124576040517f08c379a000000000000000000000000000000000000000000000000000000000815260040161111b90613fe0565b60405180910390fd5b6000805b84600701805490508110801561113d57508582105b1561121157600085600701828154811061115a57611159613a33565b5b906000526020600020015490508473ffffffffffffffffffffffffffffffffffffffff1661118782610d01565b73ffffffffffffffffffffffffffffffffffffffff16036111fd576111ad853383611d91565b82806111b8906139eb565b9350507fd3cc8cf9db2b8627bc6af06a77811eec7a022b85a8044771b6825d57807d506788338389600301546040516111f49493929190614000565b60405180910390a15b508080611209906139eb565b915050611128565b50848114611254576040517f08c379a000000000000000000000000000000000000000000000000000000000815260040161124b90614091565b60405180910390fd5b8484600601600082825461126891906140b1565b9250508190555060008460060154036112995760008460040160006101000a81548160ff0219169083151502179055505b50506113c9565b600083146112e3576040517f08c379a00000000000000000000000000000000000000000000000000000000081526004016112da90614131565b60405180910390fd5b81600201543414611329576040517f08c379a000000000000000000000000000000000000000000000000000000000815260040161132090613fe0565b60405180910390fd5b338260000160006101000a81548173ffffffffffffffffffffffffffffffffffffffff021916908373ffffffffffffffffffffffffffffffffffffffff16021790555060008260040160006101000a81548160ff0219169083151502179055507ff240bec15fb695f4a5d675ef66f2bf676a48b0068617c8718d7d6bbcc8adaf27843384600201546040516113c093929190614151565b60405180910390a15b60008173ffffffffffffffffffffffffffffffffffffffff16346040516113ef906137ce565b60006040518083038185875af1925050503d806000811461142c576040519150601f19603f3d011682016040523d82523d6000602084013e611431565b606091505b5050905080611475576040517f08c379a000000000000000000000000000000000000000000000000000000000815260040161146c906141d4565b60405180910390fd5b5050505050565b61148461208a565b8060088190555050565b606061149982611bf0565b60006006600084815260200190815260200160002080546114b99061354a565b80601f01602080910402602001604051908101604052809291908181526020018280546114e59061354a565b80156115325780601f1061150757610100808354040283529160200191611532565b820191906000526020600020905b81548152906001019060200180831161151557829003601f168201915b505050505090506000611543612694565b9050600081510361155857819250505061159b565b60008251111561158d578082604051602001611575929190614230565b6040516020818303038152906040529250505061159b565b611596846126ab565b925050505b919050565b60095481565b600b6020528060005260406000206000915090508060000160009054906101000a900473ffffffffffffffffffffffffffffffffffffffff16908060010180546115ef9061354a565b80601f016020809104026020016040519081016040528092919081815260200182805461161b9061354a565b80156116685780601f1061163d57610100808354040283529160200191611668565b820191906000526020600020905b81548152906001019060200180831161164b57829003601f168201915b5050505050908060020154908060030154908060040160009054906101000a900460ff169080600501805461169c9061354a565b80601f01602080910402602001604051908101604052809291908181526020018280546116c89061354a565b80156117155780601f106116ea57610100808354040283529160200191611715565b820191906000526020600020905b8154815290600101906020018083116116f857829003601f168201915b5050505050908060060154905087565b6000600560008473ffffffffffffffffffffffffffffffffffffffff1673ffffffffffffffffffffffffffffffffffffffff16815260200190815260200160002060008373ffffffffffffffffffffffffffffffffffffffff1673ffffffffffffffffffffffffffffffffffffffff16815260200190815260200160002060009054906101000a900460ff16905092915050565b6000606060008060006060600060606000891180156117da57506009548911155b611819576040517f08c379a000000000000000000000000000000000000000000000000000000000815260040161181090613e5a565b60405180910390fd5b6000600b60008b8152602001908152602001600020604051806101000160405290816000820160009054906101000a900473ffffffffffffffffffffffffffffffffffffffff1673ffffffffffffffffffffffffffffffffffffffff1673ffffffffffffffffffffffffffffffffffffffff1681526020016001820180546118a09061354a565b80601f01602080910402602001604051908101604052809291908181526020018280546118cc9061354a565b80156119195780601f106118ee57610100808354040283529160200191611919565b820191906000526020600020905b8154815290600101906020018083116118fc57829003601f168201915b5050505050815260200160028201548152602001600382015481526020016004820160009054906101000a900460ff161515151581526020016005820180546119619061354a565b80601f016020809104026020016040519081016040528092919081815260200182805461198d9061354a565b80156119da5780601f106119af576101008083540402835291602001916119da565b820191906000526020600020905b8154815290600101906020018083116119bd57829003601f168201915b505050505081526020016006820154815260200160078201805480602002602001604051908101604052809291908181526020018280548015611a3c57602002820191906000526020600020905b815481526020019060010190808311611a28575b5050505050815250509050806000015181602001518260400151836060015184608001518560a001518660c001518760e001519850985098509850985098509850985050919395975091939597565b611a9361208a565b600073ffffffffffffffffffffffffffffffffffffffff168173ffffffffffffffffffffffffffffffffffffffff1603611b02576040517f08c379a0000000000000000000000000000000000000000000000000000000008152600401611af9906142c6565b60405180910390fd5b611b0b81612406565b50565b60007f80ac58cd000000000000000000000000000000000000000000000000000000007bffffffffffffffffffffffffffffffffffffffffffffffffffffffff1916827bffffffffffffffffffffffffffffffffffffffffffffffffffffffff19161480611bd957507f5b5e139f000000000000000000000000000000000000000000000000000000007bffffffffffffffffffffffffffffffffffffffffffffffffffffffff1916827bffffffffffffffffffffffffffffffffffffffffffffffffffffffff1916145b80611be95750611be882612713565b5b9050919050565b611bf98161277d565b611c38576040517f08c379a0000000000000000000000000000000000000000000000000000000008152600401611c2f90613d5c565b60405180910390fd5b50565b600033905090565b816004600083815260200190815260200160002060006101000a81548173ffffffffffffffffffffffffffffffffffffffff021916908373ffffffffffffffffffffffffffffffffffffffff160217905550808273ffffffffffffffffffffffffffffffffffffffff16611cb683610d01565b73ffffffffffffffffffffffffffffffffffffffff167f8c5be1e5ebec7d5bd14f71427d1e84f3dd0314c0f7b2291e5b200ac8c7c3b92560405160405180910390a45050565b600080611d0883610d01565b90508073ffffffffffffffffffffffffffffffffffffffff168473ffffffffffffffffffffffffffffffffffffffff161480611d4a5750611d498185611725565b5b80611d8857508373ffffffffffffffffffffffffffffffffffffffff16611d70846106da565b73ffffffffffffffffffffffffffffffffffffffff16145b91505092915050565b8273ffffffffffffffffffffffffffffffffffffffff16611db182610d01565b73ffffffffffffffffffffffffffffffffffffffff1614611e07576040517f08c379a0000000000000000000000000000000000000000000000000000000008152600401611dfe90614358565b60405180910390fd5b600073ffffffffffffffffffffffffffffffffffffffff168273ffffffffffffffffffffffffffffffffffffffff1603611e76576040517f08c379a0000000000000000000000000000000000000000000000000000000008152600401611e6d906143ea565b60405180910390fd5b611e8383838360016127be565b8273ffffffffffffffffffffffffffffffffffffffff16611ea382610d01565b73ffffffffffffffffffffffffffffffffffffffff1614611ef9576040517f08c379a0000000000000000000000000000000000000000000000000000000008152600401611ef090614358565b60405180910390fd5b6004600082815260200190815260200160002060006101000a81549073ffffffffffffffffffffffffffffffffffffffff02191690556001600360008573ffffffffffffffffffffffffffffffffffffffff1673ffffffffffffffffffffffffffffffffffffffff168152602001908152602001600020600082825403925050819055506001600360008473ffffffffffffffffffffffffffffffffffffffff1673ffffffffffffffffffffffffffffffffffffffff16815260200190815260200160002060008282540192505081905550816002600083815260200190815260200160002060006101000a81548173ffffffffffffffffffffffffffffffffffffffff021916908373ffffffffffffffffffffffffffffffffffffffff160217905550808273ffffffffffffffffffffffffffffffffffffffff168473ffffffffffffffffffffffffffffffffffffffff167fddf252ad1be2c89b69c2b068fc378daa952ba7f163c4a11628f55a4df523b3ef60405160405180910390a461208583838360016127c4565b505050565b612092611c3b565b73ffffffffffffffffffffffffffffffffffffffff166120b0610e52565b73ffffffffffffffffffffffffffffffffffffffff1614612106576040517f08c379a00000000000000000000000000000000000000000000000000000000081526004016120fd90614456565b60405180910390fd5b565b600073ffffffffffffffffffffffffffffffffffffffff168273ffffffffffffffffffffffffffffffffffffffff1603612177576040517f08c379a000000000000000000000000000000000000000000000000000000000815260040161216e906144c2565b60405180910390fd5b6121808161277d565b156121c0576040517f08c379a00000000000000000000000000000000000000000000000000000000081526004016121b79061452e565b60405180910390fd5b6121ce6000838360016127be565b6121d78161277d565b15612217576040517f08c379a000000000000000000000000000000000000000000000000000000000815260040161220e9061452e565b60405180910390fd5b6001600360008473ffffffffffffffffffffffffffffffffffffffff1673ffffffffffffffffffffffffffffffffffffffff16815260200190815260200160002060008282540192505081905550816002600083815260200190815260200160002060006101000a81548173ffffffffffffffffffffffffffffffffffffffff021916908373ffffffffffffffffffffffffffffffffffffffff160217905550808273ffffffffffffffffffffffffffffffffffffffff16600073ffffffffffffffffffffffffffffffffffffffff167fddf252ad1be2c89b69c2b068fc378daa952ba7f163c4a11628f55a4df523b3ef60405160405180910390a46123216000838360016127c4565b5050565b61232e8261277d565b61236d576040517f08c379a0000000000000000000000000000000000000000000000000000000008152600401612364906145c0565b60405180910390fd5b8060066000848152602001908152602001600020908161238d9190613c3e565b507ff8e1a15aba9398e019f0b49df1a4fde98ee17ae345cb5f6b5e2c27f5033e8ce7826040516123bd9190612eba565b60405180910390a15050565b60006002600083815260200190815260200160002060009054906101000a900473ffffffffffffffffffffffffffffffffffffffff169050919050565b6000600760009054906101000a900473ffffffffffffffffffffffffffffffffffffffff16905081600760006101000a81548173ffffffffffffffffffffffffffffffffffffffff021916908373ffffffffffffffffffffffffffffffffffffffff1602179055508173ffffffffffffffffffffffffffffffffffffffff168173ffffffffffffffffffffffffffffffffffffffff167f8be0079c531659141344cd1fd0a4f28419497f9722a3daafe3b4186f6b6457e060405160405180910390a35050565b8173ffffffffffffffffffffffffffffffffffffffff168373ffffffffffffffffffffffffffffffffffffffff160361253a576040517f08c379a00000000000000000000000000000000000000000000000000000000081526004016125319061462c565b60405180910390fd5b80600560008573ffffffffffffffffffffffffffffffffffffffff1673ffffffffffffffffffffffffffffffffffffffff16815260200190815260200160002060008473ffffffffffffffffffffffffffffffffffffffff1673ffffffffffffffffffffffffffffffffffffffff16815260200190815260200160002060006101000a81548160ff0219169083151502179055508173ffffffffffffffffffffffffffffffffffffffff168373ffffffffffffffffffffffffffffffffffffffff167f17307eab39ab6107e8899845ad3d59bd9653f200f220920489ca2b5937696c318360405161262b9190612cb3565b60405180910390a3505050565b612643848484611d91565b61264f848484846127ca565b61268e576040517f08c379a0000000000000000000000000000000000000000000000000000000008152600401612685906146be565b60405180910390fd5b50505050565b606060405180602001604052806000815250905090565b60606126b682611bf0565b60006126c0612694565b905060008151116126e0576040518060200160405280600081525061270b565b806126ea84612951565b6040516020016126fb929190614230565b6040516020818303038152906040525b915050919050565b60007f01ffc9a7000000000000000000000000000000000000000000000000000000007bffffffffffffffffffffffffffffffffffffffffffffffffffffffff1916827bffffffffffffffffffffffffffffffffffffffffffffffffffffffff1916149050919050565b60008073ffffffffffffffffffffffffffffffffffffffff1661279f836123c9565b73ffffffffffffffffffffffffffffffffffffffff1614159050919050565b50505050565b50505050565b60006127eb8473ffffffffffffffffffffffffffffffffffffffff16612a1f565b15612944578373ffffffffffffffffffffffffffffffffffffffff1663150b7a02612814611c3b565b8786866040518563ffffffff1660e01b81526004016128369493929190614733565b6020604051808303816000875af192505050801561287257506040513d601f19601f8201168201806040525081019061286f9190614794565b60015b6128f4573d80600081146128a2576040519150601f19603f3d011682016040523d82523d6000602084013e6128a7565b606091505b5060008151036128ec576040517f08c379a00000000000000000000000000000000000000000000000000000000081526004016128e3906146be565b60405180910390fd5b805181602001fd5b63150b7a0260e01b7bffffffffffffffffffffffffffffffffffffffffffffffffffffffff1916817bffffffffffffffffffffffffffffffffffffffffffffffffffffffff191614915050612949565b600190505b949350505050565b60606000600161296084612a42565b01905060008167ffffffffffffffff81111561297f5761297e612f32565b5b6040519080825280601f01601f1916602001820160405280156129b15781602001600182028036833780820191505090505b509050600082602001820190505b600115612a14578080600190039150507f3031323334353637383961626364656600000000000000000000000000000000600a86061a8153600a8581612a0857612a076147c1565b5b049450600085036129bf575b819350505050919050565b6000808273ffffffffffffffffffffffffffffffffffffffff163b119050919050565b600080600090507a184f03e93ff9f4daa797ed6e38ed64bf6a1f0100000000000000008310612aa0577a184f03e93ff9f4daa797ed6e38ed64bf6a1f0100000000000000008381612a9657612a956147c1565b5b0492506040810190505b6d04ee2d6d415b85acef81000000008310612add576d04ee2d6d415b85acef81000000008381612ad357612ad26147c1565b5b0492506020810190505b662386f26fc100008310612b0c57662386f26fc100008381612b0257612b016147c1565b5b0492506010810190505b6305f5e1008310612b35576305f5e1008381612b2b57612b2a6147c1565b5b0492506008810190505b6127108310612b5a576127108381612b5057612b4f6147c1565b5b0492506004810190505b60648310612b7d5760648381612b7357612b726147c1565b5b0492506002810190505b600a8310612b8c576001810190505b80915050919050565b828054828255906000526020600020908101928215612bd1579160200282015b82811115612bd0578251825591602001919060010190612bb5565b5b509050612bde9190612be2565b5090565b5b80821115612bfb576000816000905550600101612be3565b5090565b6000604051905090565b600080fd5b600080fd5b60007fffffffff0000000000000000000000000000000000000000000000000000000082169050919050565b612c4881612c13565b8114612c5357600080fd5b50565b600081359050612c6581612c3f565b92915050565b600060208284031215612c8157612c80612c09565b5b6000612c8f84828501612c56565b91505092915050565b60008115159050919050565b612cad81612c98565b82525050565b6000602082019050612cc86000830184612ca4565b92915050565b600081519050919050565b600082825260208201905092915050565b60005b83811015612d08578082015181840152602081019050612ced565b60008484015250505050565b6000601f19601f8301169050919050565b6000612d3082612cce565b612d3a8185612cd9565b9350612d4a818560208601612cea565b612d5381612d14565b840191505092915050565b60006020820190508181036000830152612d788184612d25565b905092915050565b6000819050919050565b612d9381612d80565b8114612d9e57600080fd5b50565b600081359050612db081612d8a565b92915050565b600060208284031215612dcc57612dcb612c09565b5b6000612dda84828501612da1565b91505092915050565b600073ffffffffffffffffffffffffffffffffffffffff82169050919050565b6000612e0e82612de3565b9050919050565b612e1e81612e03565b82525050565b6000602082019050612e396000830184612e15565b92915050565b612e4881612e03565b8114612e5357600080fd5b50565b600081359050612e6581612e3f565b92915050565b60008060408385031215612e8257612e81612c09565b5b6000612e9085828601612e56565b9250506020612ea185828601612da1565b9150509250929050565b612eb481612d80565b82525050565b6000602082019050612ecf6000830184612eab565b92915050565b600080600060608486031215612eee57612eed612c09565b5b6000612efc86828701612e56565b9350506020612f0d86828701612e56565b9250506040612f1e86828701612da1565b9150509250925092565b600080fd5b600080fd5b7f4e487b7100000000000000000000000000000000000000000000000000000000600052604160045260246000fd5b612f6a82612d14565b810181811067ffffffffffffffff82111715612f8957612f88612f32565b5b80604052505050565b6000612f9c612bff565b9050612fa88282612f61565b919050565b600067ffffffffffffffff821115612fc857612fc7612f32565b5b612fd182612d14565b9050602081019050919050565b82818337600083830152505050565b6000613000612ffb84612fad565b612f92565b90508281526020810184848401111561301c5761301b612f2d565b5b613027848285612fde565b509392505050565b600082601f83011261304457613043612f28565b5b8135613054848260208601612fed565b91505092915050565b600080600080600060a0868803121561307957613078612c09565b5b600086013567ffffffffffffffff81111561309757613096612c0e565b5b6130a38882890161302f565b95505060206130b488828901612da1565b94505060406130c588828901612da1565b935050606086013567ffffffffffffffff8111156130e6576130e5612c0e565b5b6130f28882890161302f565b925050608061310388828901612da1565b9150509295509295909350565b60006020828403121561312657613125612c09565b5b600061313484828501612e56565b91505092915050565b61314681612c98565b811461315157600080fd5b50565b6000813590506131638161313d565b92915050565b600080604083850312156131805761317f612c09565b5b600061318e85828601612e56565b925050602061319f85828601613154565b9150509250929050565b600067ffffffffffffffff8211156131c4576131c3612f32565b5b6131cd82612d14565b9050602081019050919050565b60006131ed6131e8846131a9565b612f92565b90508281526020810184848401111561320957613208612f2d565b5b613214848285612fde565b509392505050565b600082601f83011261323157613230612f28565b5b81356132418482602086016131da565b91505092915050565b6000806000806080858703121561326457613263612c09565b5b600061327287828801612e56565b945050602061328387828801612e56565b935050604061329487828801612da1565b925050606085013567ffffffffffffffff8111156132b5576132b4612c0e565b5b6132c18782880161321c565b91505092959194509250565b600080604083850312156132e4576132e3612c09565b5b60006132f285828601612da1565b925050602061330385828601612da1565b9150509250929050565b600060e082019050613322600083018a612e15565b81810360208301526133348189612d25565b90506133436040830188612eab565b6133506060830187612eab565b61335d6080830186612ca4565b81810360a083015261336f8185612d25565b905061337e60c0830184612eab565b98975050505050505050565b600080604083850312156133a1576133a0612c09565b5b60006133af85828601612e56565b92505060206133c085828601612e56565b9150509250929050565b600081519050919050565b600082825260208201905092915050565b6000819050602082019050919050565b6133ff81612d80565b82525050565b600061341183836133f6565b60208301905092915050565b6000602082019050919050565b6000613435826133ca565b61343f81856133d5565b935061344a836133e6565b8060005b8381101561347b5781516134628882613405565b975061346d8361341d565b92505060018101905061344e565b5085935050505092915050565b60006101008201905061349e600083018b612e15565b81810360208301526134b0818a612d25565b90506134bf6040830189612eab565b6134cc6060830188612eab565b6134d96080830187612ca4565b81810360a08301526134eb8186612d25565b90506134fa60c0830185612eab565b81810360e083015261350c818461342a565b90509998505050505050505050565b7f4e487b7100000000000000000000000000000000000000000000000000000000600052602260045260246000fd5b6000600282049050600182168061356257607f821691505b6020821081036135755761357461351b565b5b50919050565b7f4552433732313a20617070726f76616c20746f2063757272656e74206f776e6560008201527f7200000000000000000000000000000000000000000000000000000000000000602082015250565b60006135d7602183612cd9565b91506135e28261357b565b604082019050919050565b60006020820190508181036000830152613606816135ca565b9050919050565b7f4552433732313a20617070726f76652063616c6c6572206973206e6f7420746f60008201527f6b656e206f776e6572206f7220617070726f76656420666f7220616c6c000000602082015250565b6000613669603d83612cd9565b91506136748261360d565b604082019050919050565b600060208201905081810360008301526136988161365c565b9050919050565b7f4552433732313a2063616c6c6572206973206e6f7420746f6b656e206f776e6560008201527f72206f7220617070726f76656400000000000000000000000000000000000000602082015250565b60006136fb602d83612cd9565b91506137068261369f565b604082019050919050565b6000602082019050818103600083015261372a816136ee565b9050919050565b7f4e6f2066756e647320746f207769746864726177000000000000000000000000600082015250565b6000613767601483612cd9565b915061377282613731565b602082019050919050565b600060208201905081810360008301526137968161375a565b9050919050565b600081905092915050565b50565b60006137b860008361379d565b91506137c3826137a8565b600082019050919050565b60006137d9826137ab565b9150819050919050565b7f5769746864726177206661696c65640000000000000000000000000000000000600082015250565b6000613819600f83612cd9565b9150613824826137e3565b602082019050919050565b600060208201905081810360008301526138488161380c565b9050919050565b7f496e636f727265637420726567697374726174696f6e2066656520616d6f756e60008201527f7400000000000000000000000000000000000000000000000000000000000000602082015250565b60006138ab602183612cd9565b91506138b68261384f565b604082019050919050565b600060208201905081810360008301526138da8161389e565b9050919050565b600060c0820190506138f66000830189612eab565b6139036020830188612e15565b81810360408301526139158187612d25565b90506139246060830186612eab565b81810360808301526139368185612d25565b905061394560a0830184612eab565b979650505050505050565b7f4e4654207072696365206d757374206265207365740000000000000000000000600082015250565b6000613986601583612cd9565b915061399182613950565b602082019050919050565b600060208201905081810360008301526139b581613979565b9050919050565b7f4e487b7100000000000000000000000000000000000000000000000000000000600052601160045260246000fd5b60006139f682612d80565b91507fffffffffffffffffffffffffffffffffffffffffffffffffffffffffffffffff8203613a2857613a276139bc565b5b600182019050919050565b7f4e487b7100000000000000000000000000000000000000000000000000000000600052603260045260246000fd5b6000604082019050613a776000830185612e15565b8181036020830152613a898184612d25565b90509392505050565b60008190508160005260206000209050919050565b60006020601f8301049050919050565b600082821b905092915050565b600060088302613af47fffffffffffffffffffffffffffffffffffffffffffffffffffffffffffffffff82613ab7565b613afe8683613ab7565b95508019841693508086168417925050509392505050565b6000819050919050565b6000613b3b613b36613b3184612d80565b613b16565b612d80565b9050919050565b6000819050919050565b613b5583613b20565b613b69613b6182613b42565b848454613ac4565b825550505050565b600090565b613b7e613b71565b613b89818484613b4c565b505050565b5b81811015613bad57613ba2600082613b76565b600181019050613b8f565b5050565b601f821115613bf257613bc381613a92565b613bcc84613aa7565b81016020851015613bdb578190505b613bef613be785613aa7565b830182613b8e565b50505b505050565b600082821c905092915050565b6000613c1560001984600802613bf7565b1980831691505092915050565b6000613c2e8383613c04565b9150826002028217905092915050565b613c4782612cce565b67ffffffffffffffff811115613c6057613c5f612f32565b5b613c6a825461354a565b613c75828285613bb1565b600060209050601f831160018114613ca85760008415613c96578287015190505b613ca08582613c22565b865550613d08565b601f198416613cb686613a92565b60005b82811015613cde57848901518255600182019150602085019450602081019050613cb9565b86831015613cfb5784890151613cf7601f891682613c04565b8355505b6001600288020188555050505b505050505050565b7f4552433732313a20696e76616c696420746f6b656e2049440000000000000000600082015250565b6000613d46601883612cd9565b9150613d5182613d10565b602082019050919050565b60006020820190508181036000830152613d7581613d39565b9050919050565b7f4552433732313a2061646472657373207a65726f206973206e6f74206120766160008201527f6c6964206f776e65720000000000000000000000000000000000000000000000602082015250565b6000613dd8602983612cd9565b9150613de382613d7c565b604082019050919050565b60006020820190508181036000830152613e0781613dcb565b9050919050565b7f496e76616c6964206c616e642049440000000000000000000000000000000000600082015250565b6000613e44600f83612cd9565b9150613e4f82613e0e565b602082019050919050565b60006020820190508181036000830152613e7381613e37565b9050919050565b7f4c616e64206973206e6f7420617661696c61626c6520666f722073616c650000600082015250565b6000613eb0601e83612cd9565b9150613ebb82613e7a565b602082019050919050565b60006020820190508181036000830152613edf81613ea3565b9050919050565b7f496e76616c696420746f6b656e20616d6f756e74000000000000000000000000600082015250565b6000613f1c601483612cd9565b9150613f2782613ee6565b602082019050919050565b60006020820190508181036000830152613f4b81613f0f565b9050919050565b6000613f5d82612d80565b9150613f6883612d80565b9250828202613f7681612d80565b91508282048414831517613f8d57613f8c6139bc565b5b5092915050565b7f496e636f72726563742045544820616d6f756e742073656e7400000000000000600082015250565b6000613fca601983612cd9565b9150613fd582613f94565b602082019050919050565b60006020820190508181036000830152613ff981613fbd565b9050919050565b60006080820190506140156000830187612eab565b6140226020830186612e15565b61402f6040830185612eab565b61403c6060830184612eab565b95945050505050565b7f4e6f7420656e6f75676820617661696c61626c6520746f6b656e730000000000600082015250565b600061407b601b83612cd9565b915061408682614045565b602082019050919050565b600060208201905081810360008301526140aa8161406e565b9050919050565b60006140bc82612d80565b91506140c783612d80565b92508282039050818111156140df576140de6139bc565b5b92915050565b7f54686973206c616e6420646f6573206e6f742068617665204e46547300000000600082015250565b600061411b601c83612cd9565b9150614126826140e5565b602082019050919050565b6000602082019050818103600083015261414a8161410e565b9050919050565b60006060820190506141666000830186612eab565b6141736020830185612e15565b6141806040830184612eab565b949350505050565b7f5472616e7366657220746f2073656c6c6572206661696c656400000000000000600082015250565b60006141be601983612cd9565b91506141c982614188565b602082019050919050565b600060208201905081810360008301526141ed816141b1565b9050919050565b600081905092915050565b600061420a82612cce565b61421481856141f4565b9350614224818560208601612cea565b80840191505092915050565b600061423c82856141ff565b915061424882846141ff565b91508190509392505050565b7f4f776e61626c653a206e6577206f776e657220697320746865207a65726f206160008201527f6464726573730000000000000000000000000000000000000000000000000000602082015250565b60006142b0602683612cd9565b91506142bb82614254565b604082019050919050565b600060208201905081810360008301526142df816142a3565b9050919050565b7f4552433732313a207472616e736665722066726f6d20696e636f72726563742060008201527f6f776e6572000000000000000000000000000000000000000000000000000000602082015250565b6000614342602583612cd9565b915061434d826142e6565b604082019050919050565b6000602082019050818103600083015261437181614335565b9050919050565b7f4552433732313a207472616e7366657220746f20746865207a65726f2061646460008201527f7265737300000000000000000000000000000000000000000000000000000000602082015250565b60006143d4602483612cd9565b91506143df82614378565b604082019050919050565b60006020820190508181036000830152614403816143c7565b9050919050565b7f4f776e61626c653a2063616c6c6572206973206e6f7420746865206f776e6572600082015250565b6000614440602083612cd9565b915061444b8261440a565b602082019050919050565b6000602082019050818103600083015261446f81614433565b9050919050565b7f4552433732313a206d696e7420746f20746865207a65726f2061646472657373600082015250565b60006144ac602083612cd9565b91506144b782614476565b602082019050919050565b600060208201905081810360008301526144db8161449f565b9050919050565b7f4552433732313a20746f6b656e20616c7265616479206d696e74656400000000600082015250565b6000614518601c83612cd9565b9150614523826144e2565b602082019050919050565b600060208201905081810360008301526145478161450b565b9050919050565b7f45524337323155524953746f726167653a2055524920736574206f66206e6f6e60008201527f6578697374656e7420746f6b656e000000000000000000000000000000000000602082015250565b60006145aa602e83612cd9565b91506145b58261454e565b604082019050919050565b600060208201905081810360008301526145d98161459d565b9050919050565b7f4552433732313a20617070726f766520746f2063616c6c657200000000000000600082015250565b6000614616601983612cd9565b9150614621826145e0565b602082019050919050565b6000602082019050818103600083015261464581614609565b9050919050565b7f4552433732313a207472616e7366657220746f206e6f6e20455243373231526560008201527f63656976657220696d706c656d656e7465720000000000000000000000000000602082015250565b60006146a8603283612cd9565b91506146b38261464c565b604082019050919050565b600060208201905081810360008301526146d78161469b565b9050919050565b600081519050919050565b600082825260208201905092915050565b6000614705826146de565b61470f81856146e9565b935061471f818560208601612cea565b61472881612d14565b840191505092915050565b60006080820190506147486000830187612e15565b6147556020830186612e15565b6147626040830185612eab565b818103606083015261477481846146fa565b905095945050505050565b60008151905061478e81612c3f565b92915050565b6000602082840312156147aa576147a9612c09565b5b60006147b88482850161477f565b91505092915050565b7f4e487b7100000000000000000000000000000000000000000000000000000000600052601260045260246000fdfea264697066735822122064b063d48dd27e3f85d9484d60e5de475950db2bbfa1df794d1f2fcdfcc0202264736f6c63430008130033",
  "immutableReferences": {},
  "source": "// SPDX-License-Identifier: MIT\r\npragma solidity ^0.8.19;\r\n\r\nimport \"@openzeppelin/contracts/token/ERC721/extensions/ERC721URIStorage.sol\";\r\nimport \"@openzeppelin/contracts/access/Ownable.sol\";\r\n\r\ncontract LandRegistry is ERC721URIStorage, Ownable {\r\n    uint256 public registrationFee = 0.01 ether;\r\n    uint256 public landCount = 0;\r\n    uint256 public tokenIdCounter = 1;\r\n\r\n    struct Land {\r\n        address owner;\r\n        string location;\r\n        uint256 price; // Total price for whole land (if no NFTs)\r\n        uint256 pricePerToken; // Price per NFT token (if NFTs exist)\r\n        bool isAvailable;\r\n        string cid; // IPFS CID for document\r\n        uint256 tokenCount; // NFT tokens count (0 means no NFT)\r\n        uint256[] tokenIds; // NFT token IDs\r\n    }\r\n\r\n    mapping(uint256 => Land) public lands;\r\n\r\n    event LandRegistered(uint256 landId, address owner, string location, uint256 price, string cid, uint256 tokenCount);\r\n    event LandTokenBought(uint256 landId, address newOwner, uint256 tokenId, uint256 price);\r\n    event LandBought(uint256 landId, address newOwner, uint256 price);\r\n    event NFTMinted(uint256 indexed tokenId, uint256 indexed landId, address owner, string tokenURI);\r\n\r\n    constructor() ERC721(\"LandNFT\", \"LND\") Ownable() {}\r\n\r\n    function registerLand(\r\n        string memory _location,\r\n        uint256 _price,\r\n        uint256 _pricePerToken,\r\n        string memory _cid,\r\n        uint256 _tokenCount\r\n    ) public payable {\r\n        require(msg.value == registrationFee, \"Incorrect registration fee amount\");\r\n\r\n        // Emit the LandRegistered event\r\n        emit LandRegistered(landCount, msg.sender, _location, _price, _cid, _tokenCount);\r\n\r\n        // Initialize an array to store token IDs (if NFTs are being minted)\r\n        uint256[] memory tokenIds = new uint256[](_tokenCount);\r\n\r\n        // If _tokenCount > 0, mint NFTs\r\n        if (_tokenCount > 0) {\r\n            require(_pricePerToken > 0, \"NFT price must be set\");\r\n\r\n            for (uint256 i = 0; i < _tokenCount; i++) {\r\n                uint256 newTokenId = tokenIdCounter++;\r\n                _mint(msg.sender, newTokenId); // Mint the NFT\r\n                _setTokenURI(newTokenId, _cid); // Set the token URI\r\n                tokenIds[i] = newTokenId; // Store the token ID\r\n                emit NFTMinted(newTokenId, landCount, msg.sender, _cid); // Emit NFTMinted event\r\n            }\r\n        }\r\n\r\n        // Increment landCount and store land details\r\n        landCount++;\r\n        bool availability = _tokenCount > 0 ? true : (_price > 0); // Set availability\r\n        lands[landCount] = Land(\r\n            msg.sender, // Owner\r\n            _location, // Location\r\n            _price, // Price\r\n            _pricePerToken, // Price per token\r\n            availability, // Availability\r\n            _cid, // CID\r\n            _tokenCount, // Token count\r\n            tokenIds // Token IDs\r\n        );\r\n    }\r\n\r\n    function buyLand(uint256 _landId, uint256 _tokensToBuy) public payable {\r\n        require(_landId > 0 && _landId <= landCount, \"Invalid land ID\");\r\n\r\n        Land storage land = lands[_landId];\r\n        require(land.isAvailable, \"Land is not available for sale\");\r\n\r\n        address previousOwner = land.owner;\r\n\r\n        if (land.tokenCount > 0) {\r\n            // Buying NFTs from land registered with NFTs\r\n            require(_tokensToBuy > 0 && _tokensToBuy <= land.tokenCount, \"Invalid token amount\");\r\n\r\n            uint256 totalPrice = _tokensToBuy * land.pricePerToken;\r\n            require(msg.value == totalPrice, \"Incorrect ETH amount sent\");\r\n\r\n            uint256 tokensTransferred = 0;\r\n\r\n            // Transfer NFT tokens\r\n            for (uint256 i = 0; i < land.tokenIds.length && tokensTransferred < _tokensToBuy; i++) {\r\n                uint256 tokenId = land.tokenIds[i];\r\n\r\n                if (ownerOf(tokenId) == previousOwner) {\r\n                    _transfer(previousOwner, msg.sender, tokenId);\r\n                    tokensTransferred++;\r\n\r\n                    emit LandTokenBought(_landId, msg.sender, tokenId, land.pricePerToken);\r\n                }\r\n            }\r\n\r\n            require(tokensTransferred == _tokensToBuy, \"Not enough available tokens\");\r\n\r\n            // Update remaining token count\r\n            land.tokenCount -= _tokensToBuy;\r\n            if (land.tokenCount == 0) {\r\n                land.isAvailable = false; // Mark land as unavailable if all tokens are sold\r\n            }\r\n        } else {\r\n            // Buying land without NFTs\r\n            require(_tokensToBuy == 0, \"This land does not have NFTs\");\r\n            require(msg.value == land.price, \"Incorrect ETH amount sent\");\r\n\r\n            // Transfer ownership\r\n            land.owner = msg.sender;\r\n            land.isAvailable = false;\r\n\r\n            emit LandBought(_landId, msg.sender, land.price);\r\n        }\r\n\r\n        // Transfer payment to seller\r\n        (bool success, ) = payable(previousOwner).call{value: msg.value}(\"\");\r\n        require(success, \"Transfer to seller failed\");\r\n    }\r\n\r\n    function getLand(uint256 _landId) public view returns (address, string memory, uint256, uint256, bool, string memory, uint256, uint256[] memory) {\r\n        require(_landId > 0 && _landId <= landCount, \"Invalid land ID\");\r\n        Land memory land = lands[_landId];\r\n        return (land.owner, land.location, land.price, land.pricePerToken, land.isAvailable, land.cid, land.tokenCount, land.tokenIds);\r\n    }\r\n\r\n    function setRegistrationFee(uint256 _newFee) public onlyOwner {\r\n        registrationFee = _newFee;\r\n    }\r\n\r\n    function withdraw() public onlyOwner {\r\n        uint256 balance = address(this).balance;\r\n        require(balance > 0, \"No funds to withdraw\");\r\n\r\n        (bool success, ) = payable(owner()).call{value: balance}(\"\");\r\n        require(success, \"Withdraw failed\");\r\n    }\r\n}",
  "sourcePath": "D:\\coding\\Javascript\\react\\land-registry-dapp\\contracts\\landregistry.sol",
  "compiler": {
    "name": "solc",
    "version": "0.8.19+commit.7dd6d404.Emscripten.clang"
  },
  "schemaVersion": "3.4.16",
  "updatedAt": "2025-02-25T17:30:12.071Z",
  "networkType": "ethereum",
  "devdoc": {
    "events": {
      "Approval(address,address,uint256)": {
        "details": "Emitted when `owner` enables `approved` to manage the `tokenId` token."
      },
      "ApprovalForAll(address,address,bool)": {
        "details": "Emitted when `owner` enables or disables (`approved`) `operator` to manage all of its assets."
      },
      "BatchMetadataUpdate(uint256,uint256)": {
        "details": "This event emits when the metadata of a range of tokens is changed. So that the third-party platforms such as NFT market could timely update the images and related attributes of the NFTs."
      },
      "MetadataUpdate(uint256)": {
        "details": "This event emits when the metadata of a token is changed. So that the third-party platforms such as NFT market could timely update the images and related attributes of the NFT."
      },
      "Transfer(address,address,uint256)": {
        "details": "Emitted when `tokenId` token is transferred from `from` to `to`."
      }
    },
    "kind": "dev",
    "methods": {
      "approve(address,uint256)": {
        "details": "See {IERC721-approve}."
      },
      "balanceOf(address)": {
        "details": "See {IERC721-balanceOf}."
      },
      "getApproved(uint256)": {
        "details": "See {IERC721-getApproved}."
      },
      "isApprovedForAll(address,address)": {
        "details": "See {IERC721-isApprovedForAll}."
      },
      "name()": {
        "details": "See {IERC721Metadata-name}."
      },
      "owner()": {
        "details": "Returns the address of the current owner."
      },
      "ownerOf(uint256)": {
        "details": "See {IERC721-ownerOf}."
      },
      "renounceOwnership()": {
        "details": "Leaves the contract without owner. It will not be possible to call `onlyOwner` functions. Can only be called by the current owner. NOTE: Renouncing ownership will leave the contract without an owner, thereby disabling any functionality that is only available to the owner."
      },
      "safeTransferFrom(address,address,uint256)": {
        "details": "See {IERC721-safeTransferFrom}."
      },
      "safeTransferFrom(address,address,uint256,bytes)": {
        "details": "See {IERC721-safeTransferFrom}."
      },
      "setApprovalForAll(address,bool)": {
        "details": "See {IERC721-setApprovalForAll}."
      },
      "supportsInterface(bytes4)": {
        "details": "See {IERC165-supportsInterface}"
      },
      "symbol()": {
        "details": "See {IERC721Metadata-symbol}."
      },
      "tokenURI(uint256)": {
        "details": "See {IERC721Metadata-tokenURI}."
      },
      "transferFrom(address,address,uint256)": {
        "details": "See {IERC721-transferFrom}."
      },
      "transferOwnership(address)": {
        "details": "Transfers ownership of the contract to a new account (`newOwner`). Can only be called by the current owner."
      }
    },
    "version": 1
  },
  "userdoc": {
    "kind": "user",
    "methods": {},
    "version": 1
  }
}