{
  "contractName": "LandRegistrye",
  "abi": [
    {
      "inputs": [],
      "stateMutability": "nonpayable",
      "type": "constructor"
    },
    {
      "anonymous": false,
      "inputs": [
        {
          "indexed": true,
          "internalType": "address",
          "name": "owner",
          "type": "address"
        },
        {
          "indexed": true,
          "internalType": "address",
          "name": "approved",
          "type": "address"
        },
        {
          "indexed": true,
          "internalType": "uint256",
          "name": "tokenId",
          "type": "uint256"
        }
      ],
      "name": "Approval",
      "type": "event"
    },
    {
      "anonymous": false,
      "inputs": [
        {
          "indexed": true,
          "internalType": "address",
          "name": "owner",
          "type": "address"
        },
        {
          "indexed": true,
          "internalType": "address",
          "name": "operator",
          "type": "address"
        },
        {
          "indexed": false,
          "internalType": "bool",
          "name": "approved",
          "type": "bool"
        }
      ],
      "name": "ApprovalForAll",
      "type": "event"
    },
    {
      "anonymous": false,
      "inputs": [
        {
          "indexed": false,
          "internalType": "uint256",
          "name": "_fromTokenId",
          "type": "uint256"
        },
        {
          "indexed": false,
          "internalType": "uint256",
          "name": "_toTokenId",
          "type": "uint256"
        }
      ],
      "name": "BatchMetadataUpdate",
      "type": "event"
    },
    {
      "anonymous": false,
      "inputs": [
        {
          "indexed": false,
          "internalType": "uint256",
          "name": "landId",
          "type": "uint256"
        },
        {
          "indexed": false,
          "internalType": "address",
          "name": "newOwner",
          "type": "address"
        },
        {
          "indexed": false,
          "internalType": "uint256",
          "name": "price",
          "type": "uint256"
        }
      ],
      "name": "LandBought",
      "type": "event"
    },
    {
      "anonymous": false,
      "inputs": [
        {
          "indexed": false,
          "internalType": "uint256",
          "name": "landId",
          "type": "uint256"
        },
        {
          "indexed": false,
          "internalType": "address",
          "name": "owner",
          "type": "address"
        },
        {
          "indexed": false,
          "internalType": "string",
          "name": "location",
          "type": "string"
        },
        {
          "indexed": false,
          "internalType": "uint256",
          "name": "price",
          "type": "uint256"
        },
        {
          "indexed": false,
          "internalType": "string",
          "name": "cid",
          "type": "string"
        },
        {
          "indexed": false,
          "internalType": "uint256",
          "name": "tokenCount",
          "type": "uint256"
        }
      ],
      "name": "LandRegistered",
      "type": "event"
    },
    {
      "anonymous": false,
      "inputs": [
        {
          "indexed": false,
          "internalType": "uint256",
          "name": "landId",
          "type": "uint256"
        },
        {
          "indexed": false,
          "internalType": "address",
          "name": "newOwner",
          "type": "address"
        },
        {
          "indexed": false,
          "internalType": "uint256",
          "name": "tokenId",
          "type": "uint256"
        },
        {
          "indexed": false,
          "internalType": "uint256",
          "name": "price",
          "type": "uint256"
        }
      ],
      "name": "LandTokenBought",
      "type": "event"
    },
    {
      "anonymous": false,
      "inputs": [
        {
          "indexed": false,
          "internalType": "uint256",
          "name": "_tokenId",
          "type": "uint256"
        }
      ],
      "name": "MetadataUpdate",
      "type": "event"
    },
    {
      "anonymous": false,
      "inputs": [
        {
          "indexed": true,
          "internalType": "uint256",
          "name": "tokenId",
          "type": "uint256"
        },
        {
          "indexed": true,
          "internalType": "uint256",
          "name": "landId",
          "type": "uint256"
        },
        {
          "indexed": false,
          "internalType": "address",
          "name": "owner",
          "type": "address"
        },
        {
          "indexed": false,
          "internalType": "string",
          "name": "tokenURI",
          "type": "string"
        }
      ],
      "name": "NFTMinted",
      "type": "event"
    },
    {
      "anonymous": false,
      "inputs": [
        {
          "indexed": true,
          "internalType": "address",
          "name": "previousOwner",
          "type": "address"
        },
        {
          "indexed": true,
          "internalType": "address",
          "name": "newOwner",
          "type": "address"
        }
      ],
      "name": "OwnershipTransferred",
      "type": "event"
    },
    {
      "anonymous": false,
      "inputs": [
        {
          "indexed": true,
          "internalType": "address",
          "name": "from",
          "type": "address"
        },
        {
          "indexed": true,
          "internalType": "address",
          "name": "to",
          "type": "address"
        },
        {
          "indexed": true,
          "internalType": "uint256",
          "name": "tokenId",
          "type": "uint256"
        }
      ],
      "name": "Transfer",
      "type": "event"
    },
    {
      "inputs": [
        {
          "internalType": "address",
          "name": "to",
          "type": "address"
        },
        {
          "internalType": "uint256",
          "name": "tokenId",
          "type": "uint256"
        }
      ],
      "name": "approve",
      "outputs": [],
      "stateMutability": "nonpayable",
      "type": "function"
    },
    {
      "inputs": [
        {
          "internalType": "address",
          "name": "owner",
          "type": "address"
        }
      ],
      "name": "balanceOf",
      "outputs": [
        {
          "internalType": "uint256",
          "name": "",
          "type": "uint256"
        }
      ],
      "stateMutability": "view",
      "type": "function",
      "constant": true
    },
    {
      "inputs": [
        {
          "internalType": "uint256",
          "name": "tokenId",
          "type": "uint256"
        }
      ],
      "name": "getApproved",
      "outputs": [
        {
          "internalType": "address",
          "name": "",
          "type": "address"
        }
      ],
      "stateMutability": "view",
      "type": "function",
      "constant": true
    },
    {
      "inputs": [
        {
          "internalType": "address",
          "name": "owner",
          "type": "address"
        },
        {
          "internalType": "address",
          "name": "operator",
          "type": "address"
        }
      ],
      "name": "isApprovedForAll",
      "outputs": [
        {
          "internalType": "bool",
          "name": "",
          "type": "bool"
        }
      ],
      "stateMutability": "view",
      "type": "function",
      "constant": true
    },
    {
      "inputs": [],
      "name": "landCount",
      "outputs": [
        {
          "internalType": "uint256",
          "name": "",
          "type": "uint256"
        }
      ],
      "stateMutability": "view",
      "type": "function",
      "constant": true
    },
    {
      "inputs": [
        {
          "internalType": "uint256",
          "name": "",
          "type": "uint256"
        }
      ],
      "name": "lands",
      "outputs": [
        {
          "internalType": "address",
          "name": "owner",
          "type": "address"
        },
        {
          "internalType": "string",
          "name": "location",
          "type": "string"
        },
        {
          "internalType": "uint256",
          "name": "price",
          "type": "uint256"
        },
        {
          "internalType": "uint256",
          "name": "pricePerToken",
          "type": "uint256"
        },
        {
          "internalType": "bool",
          "name": "isAvailable",
          "type": "bool"
        },
        {
          "internalType": "string",
          "name": "cid",
          "type": "string"
        },
        {
          "internalType": "uint256",
          "name": "tokenCount",
          "type": "uint256"
        }
      ],
      "stateMutability": "view",
      "type": "function",
      "constant": true
    },
    {
      "inputs": [],
      "name": "name",
      "outputs": [
        {
          "internalType": "string",
          "name": "",
          "type": "string"
        }
      ],
      "stateMutability": "view",
      "type": "function",
      "constant": true
    },
    {
      "inputs": [],
      "name": "owner",
      "outputs": [
        {
          "internalType": "address",
          "name": "",
          "type": "address"
        }
      ],
      "stateMutability": "view",
      "type": "function",
      "constant": true
    },
    {
      "inputs": [
        {
          "internalType": "uint256",
          "name": "tokenId",
          "type": "uint256"
        }
      ],
      "name": "ownerOf",
      "outputs": [
        {
          "internalType": "address",
          "name": "",
          "type": "address"
        }
      ],
      "stateMutability": "view",
      "type": "function",
      "constant": true
    },
    {
      "inputs": [],
      "name": "registrationFee",
      "outputs": [
        {
          "internalType": "uint256",
          "name": "",
          "type": "uint256"
        }
      ],
      "stateMutability": "view",
      "type": "function",
      "constant": true
    },
    {
      "inputs": [],
      "name": "renounceOwnership",
      "outputs": [],
      "stateMutability": "nonpayable",
      "type": "function"
    },
    {
      "inputs": [
        {
          "internalType": "address",
          "name": "from",
          "type": "address"
        },
        {
          "internalType": "address",
          "name": "to",
          "type": "address"
        },
        {
          "internalType": "uint256",
          "name": "tokenId",
          "type": "uint256"
        }
      ],
      "name": "safeTransferFrom",
      "outputs": [],
      "stateMutability": "nonpayable",
      "type": "function"
    },
    {
      "inputs": [
        {
          "internalType": "address",
          "name": "from",
          "type": "address"
        },
        {
          "internalType": "address",
          "name": "to",
          "type": "address"
        },
        {
          "internalType": "uint256",
          "name": "tokenId",
          "type": "uint256"
        },
        {
          "internalType": "bytes",
          "name": "data",
          "type": "bytes"
        }
      ],
      "name": "safeTransferFrom",
      "outputs": [],
      "stateMutability": "nonpayable",
      "type": "function"
    },
    {
      "inputs": [
        {
          "internalType": "address",
          "name": "operator",
          "type": "address"
        },
        {
          "internalType": "bool",
          "name": "approved",
          "type": "bool"
        }
      ],
      "name": "setApprovalForAll",
      "outputs": [],
      "stateMutability": "nonpayable",
      "type": "function"
    },
    {
      "inputs": [
        {
          "internalType": "bytes4",
          "name": "interfaceId",
          "type": "bytes4"
        }
      ],
      "name": "supportsInterface",
      "outputs": [
        {
          "internalType": "bool",
          "name": "",
          "type": "bool"
        }
      ],
      "stateMutability": "view",
      "type": "function",
      "constant": true
    },
    {
      "inputs": [],
      "name": "symbol",
      "outputs": [
        {
          "internalType": "string",
          "name": "",
          "type": "string"
        }
      ],
      "stateMutability": "view",
      "type": "function",
      "constant": true
    },
    {
      "inputs": [],
      "name": "tokenIdCounter",
      "outputs": [
        {
          "internalType": "uint256",
          "name": "",
          "type": "uint256"
        }
      ],
      "stateMutability": "view",
      "type": "function",
      "constant": true
    },
    {
      "inputs": [
        {
          "internalType": "uint256",
          "name": "",
          "type": "uint256"
        }
      ],
      "name": "tokenOwners",
      "outputs": [
        {
          "internalType": "address",
          "name": "",
          "type": "address"
        }
      ],
      "stateMutability": "view",
      "type": "function",
      "constant": true
    },
    {
      "inputs": [
        {
          "internalType": "uint256",
          "name": "tokenId",
          "type": "uint256"
        }
      ],
      "name": "tokenURI",
      "outputs": [
        {
          "internalType": "string",
          "name": "",
          "type": "string"
        }
      ],
      "stateMutability": "view",
      "type": "function",
      "constant": true
    },
    {
      "inputs": [
        {
          "internalType": "address",
          "name": "from",
          "type": "address"
        },
        {
          "internalType": "address",
          "name": "to",
          "type": "address"
        },
        {
          "internalType": "uint256",
          "name": "tokenId",
          "type": "uint256"
        }
      ],
      "name": "transferFrom",
      "outputs": [],
      "stateMutability": "nonpayable",
      "type": "function"
    },
    {
      "inputs": [
        {
          "internalType": "address",
          "name": "newOwner",
          "type": "address"
        }
      ],
      "name": "transferOwnership",
      "outputs": [],
      "stateMutability": "nonpayable",
      "type": "function"
    },
    {
      "inputs": [
        {
          "internalType": "string",
          "name": "_location",
          "type": "string"
        },
        {
          "internalType": "uint256",
          "name": "_price",
          "type": "uint256"
        },
        {
          "internalType": "uint256",
          "name": "_pricePerToken",
          "type": "uint256"
        },
        {
          "internalType": "string",
          "name": "_cid",
          "type": "string"
        },
        {
          "internalType": "uint256",
          "name": "_tokenCount",
          "type": "uint256"
        }
      ],
      "name": "registerLand",
      "outputs": [],
      "stateMutability": "payable",
      "type": "function",
      "payable": true
    },
    {
      "inputs": [
        {
          "internalType": "uint256",
          "name": "_landId",
          "type": "uint256"
        }
      ],
      "name": "buyLandWithoutNFT",
      "outputs": [],
      "stateMutability": "payable",
      "type": "function",
      "payable": true
    },
    {
      "inputs": [
        {
          "internalType": "uint256",
          "name": "_landId",
          "type": "uint256"
        },
        {
          "internalType": "uint256",
          "name": "_tokensToBuy",
          "type": "uint256"
        }
      ],
      "name": "buyLandTokens",
      "outputs": [],
      "stateMutability": "payable",
      "type": "function",
      "payable": true
    },
    {
      "inputs": [
        {
          "internalType": "uint256",
          "name": "_landId",
          "type": "uint256"
        }
      ],
      "name": "getLand",
      "outputs": [
        {
          "internalType": "address",
          "name": "",
          "type": "address"
        },
        {
          "internalType": "string",
          "name": "",
          "type": "string"
        },
        {
          "internalType": "uint256",
          "name": "",
          "type": "uint256"
        },
        {
          "internalType": "uint256",
          "name": "",
          "type": "uint256"
        },
        {
          "internalType": "bool",
          "name": "",
          "type": "bool"
        },
        {
          "internalType": "string",
          "name": "",
          "type": "string"
        },
        {
          "internalType": "uint256",
          "name": "",
          "type": "uint256"
        },
        {
          "internalType": "uint256[]",
          "name": "",
          "type": "uint256[]"
        }
      ],
      "stateMutability": "view",
      "type": "function",
      "constant": true
    },
    {
      "inputs": [
        {
          "internalType": "uint256",
          "name": "_newFee",
          "type": "uint256"
        }
      ],
      "name": "setRegistrationFee",
      "outputs": [],
      "stateMutability": "nonpayable",
      "type": "function"
    },
    {
      "inputs": [],
      "name": "withdraw",
      "outputs": [],
      "stateMutability": "nonpayable",
      "type": "function"
    }
  ],
  "bytecode": "0x6080604052662386f26fc1000060085560006009556001600a553480156200002657600080fd5b506040518060400160405280600781526020017f4c616e644e4654000000000000000000000000000000000000000000000000008152506040518060400160405280600381526020017f4c4e4400000000000000000000000000000000000000000000000000000000008152508160009081620000a4919062000427565b508060019081620000b6919062000427565b505050620000d9620000cd620000df60201b60201c565b620000e760201b60201c565b6200050e565b600033905090565b6000600760009054906101000a900473ffffffffffffffffffffffffffffffffffffffff16905081600760006101000a81548173ffffffffffffffffffffffffffffffffffffffff021916908373ffffffffffffffffffffffffffffffffffffffff1602179055508173ffffffffffffffffffffffffffffffffffffffff168173ffffffffffffffffffffffffffffffffffffffff167f8be0079c531659141344cd1fd0a4f28419497f9722a3daafe3b4186f6b6457e060405160405180910390a35050565b600081519050919050565b7f4e487b7100000000000000000000000000000000000000000000000000000000600052604160045260246000fd5b7f4e487b7100000000000000000000000000000000000000000000000000000000600052602260045260246000fd5b600060028204905060018216806200022f57607f821691505b602082108103620002455762000244620001e7565b5b50919050565b60008190508160005260206000209050919050565b60006020601f8301049050919050565b600082821b905092915050565b600060088302620002af7fffffffffffffffffffffffffffffffffffffffffffffffffffffffffffffffff8262000270565b620002bb868362000270565b95508019841693508086168417925050509392505050565b6000819050919050565b6000819050919050565b60006200030862000302620002fc84620002d3565b620002dd565b620002d3565b9050919050565b6000819050919050565b6200032483620002e7565b6200033c62000333826200030f565b8484546200027d565b825550505050565b600090565b6200035362000344565b6200036081848462000319565b505050565b5b8181101562000388576200037c60008262000349565b60018101905062000366565b5050565b601f821115620003d757620003a1816200024b565b620003ac8462000260565b81016020851015620003bc578190505b620003d4620003cb8562000260565b83018262000365565b50505b505050565b600082821c905092915050565b6000620003fc60001984600802620003dc565b1980831691505092915050565b6000620004178383620003e9565b9150826002028217905092915050565b6200043282620001ad565b67ffffffffffffffff8111156200044e576200044d620001b8565b5b6200045a825462000216565b620004678282856200038c565b600060209050601f8311600181146200049f57600084156200048a578287015190505b62000496858262000409565b86555062000506565b601f198416620004af866200024b565b60005b82811015620004d957848901518255600182019150602085019450602081019050620004b2565b86831015620004f95784890151620004f5601f891682620003e9565b8355505b6001600288020188555050505b505050505050565b614c45806200051e6000396000f3fe60806040526004361061019c5760003560e01c806395d89b41116100ec578063ce99c5881161008a578063e985e9c511610064578063e985e9c51461058f578063f02dd53f146105cc578063f2fde38b14610610578063f8a14f46146106395761019c565b8063ce99c58814610505578063d7bce65814610521578063e261f1e51461054c5761019c565b8063b88d4fde116100c6578063b88d4fde1461045a578063c320c72714610483578063c87b56dd146104ac578063caddb421146104e95761019c565b806395d89b41146103db57806398bdf6f514610406578063a22cb465146104315761019c565b80633ccfd60b116101595780636352211e116101335780636352211e1461031f57806370a082311461035c578063715018a6146103995780638da5cb5b146103b05761019c565b80633ccfd60b146102c357806342842e0e146102da5780635be69c76146103035761019c565b806301ffc9a7146101a157806306fdde03146101de578063081812fc14610209578063095ea7b31461024657806314c44e091461026f57806323b872dd1461029a575b600080fd5b3480156101ad57600080fd5b506101c860048036038101906101c3919061301e565b610676565b6040516101d59190613066565b60405180910390f35b3480156101ea57600080fd5b506101f36106d7565b6040516102009190613111565b60405180910390f35b34801561021557600080fd5b50610230600480360381019061022b9190613169565b610769565b60405161023d91906131d7565b60405180910390f35b34801561025257600080fd5b5061026d6004803603810190610268919061321e565b6107af565b005b34801561027b57600080fd5b506102846108c6565b604051610291919061326d565b60405180910390f35b3480156102a657600080fd5b506102c160048036038101906102bc9190613288565b6108cc565b005b3480156102cf57600080fd5b506102d861092c565b005b3480156102e657600080fd5b5061030160048036038101906102fc9190613288565b610a33565b005b61031d60048036038101906103189190613410565b610a53565b005b34801561032b57600080fd5b5061034660048036038101906103419190613169565b610e7f565b60405161035391906131d7565b60405180910390f35b34801561036857600080fd5b50610383600480360381019061037e91906134c3565b610f05565b604051610390919061326d565b60405180910390f35b3480156103a557600080fd5b506103ae610fbc565b005b3480156103bc57600080fd5b506103c5610fd0565b6040516103d291906131d7565b60405180910390f35b3480156103e757600080fd5b506103f0610ffa565b6040516103fd9190613111565b60405180910390f35b34801561041257600080fd5b5061041b61108c565b604051610428919061326d565b60405180910390f35b34801561043d57600080fd5b506104586004803603810190610453919061351c565b611092565b005b34801561046657600080fd5b50610481600480360381019061047c91906135fd565b6110a8565b005b34801561048f57600080fd5b506104aa60048036038101906104a59190613169565b61110a565b005b3480156104b857600080fd5b506104d360048036038101906104ce9190613169565b61111c565b6040516104e09190613111565b60405180910390f35b61050360048036038101906104fe9190613680565b61122e565b005b61051f600480360381019061051a9190613169565b6116a7565b005b34801561052d57600080fd5b50610536611920565b604051610543919061326d565b60405180910390f35b34801561055857600080fd5b50610573600480360381019061056e9190613169565b611926565b60405161058697969594939291906136c0565b60405180910390f35b34801561059b57600080fd5b506105b660048036038101906105b1919061373d565b611aa5565b6040516105c39190613066565b60405180910390f35b3480156105d857600080fd5b506105f360048036038101906105ee9190613169565b611b39565b60405161060798979695949392919061383b565b60405180910390f35b34801561061c57600080fd5b50610637600480360381019061063291906134c3565b611e0b565b005b34801561064557600080fd5b50610660600480360381019061065b9190613169565b611e8e565b60405161066d91906131d7565b60405180910390f35b6000634906490660e01b7bffffffffffffffffffffffffffffffffffffffffffffffffffffffff1916827bffffffffffffffffffffffffffffffffffffffffffffffffffffffff191614806106d057506106cf82611ec1565b5b9050919050565b6060600080546106e6906138fd565b80601f0160208091040260200160405190810160405280929190818152602001828054610712906138fd565b801561075f5780601f106107345761010080835404028352916020019161075f565b820191906000526020600020905b81548152906001019060200180831161074257829003601f168201915b5050505050905090565b600061077482611fa3565b6004600083815260200190815260200160002060009054906101000a900473ffffffffffffffffffffffffffffffffffffffff169050919050565b60006107ba82610e7f565b90508073ffffffffffffffffffffffffffffffffffffffff168373ffffffffffffffffffffffffffffffffffffffff160361082a576040517f08c379a0000000000000000000000000000000000000000000000000000000008152600401610821906139a0565b60405180910390fd5b8073ffffffffffffffffffffffffffffffffffffffff16610849611fee565b73ffffffffffffffffffffffffffffffffffffffff161480610878575061087781610872611fee565b611aa5565b5b6108b7576040517f08c379a00000000000000000000000000000000000000000000000000000000081526004016108ae90613a32565b60405180910390fd5b6108c18383611ff6565b505050565b60085481565b6108dd6108d7611fee565b826120af565b61091c576040517f08c379a000000000000000000000000000000000000000000000000000000000815260040161091390613ac4565b60405180910390fd5b610927838383612144565b505050565b61093461243d565b60004790506000811161097c576040517f08c379a000000000000000000000000000000000000000000000000000000000815260040161097390613b30565b60405180910390fd5b6000610986610fd0565b73ffffffffffffffffffffffffffffffffffffffff16826040516109a990613b81565b60006040518083038185875af1925050503d80600081146109e6576040519150601f19603f3d011682016040523d82523d6000602084013e6109eb565b606091505b5050905080610a2f576040517f08c379a0000000000000000000000000000000000000000000000000000000008152600401610a2690613be2565b60405180910390fd5b5050565b610a4e838383604051806020016040528060008152506110a8565b505050565b6008543414610a97576040517f08c379a0000000000000000000000000000000000000000000000000000000008152600401610a8e90613c74565b60405180910390fd5b6000610aa1610fd0565b73ffffffffffffffffffffffffffffffffffffffff1634604051610ac490613b81565b60006040518083038185875af1925050503d8060008114610b01576040519150601f19603f3d011682016040523d82523d6000602084013e610b06565b606091505b5050905080610b4a576040517f08c379a0000000000000000000000000000000000000000000000000000000008152600401610b4190613ce0565b60405180910390fd5b60008267ffffffffffffffff811115610b6657610b656132e5565b5b604051908082528060200260200182016040528015610b945781602001602082028036833780820191505090505b5090506000831115610ce25760008511610be3576040517f08c379a0000000000000000000000000000000000000000000000000000000008152600401610bda90613d4c565b60405180910390fd5b60005b83811015610ce0576000600a6000815480929190610c0390613d9b565b919050559050610c1333826124bb565b610c1d81876126d8565b80838381518110610c3157610c30613de3565b5b60200260200101818152505033600c600083815260200190815260200160002060006101000a81548173ffffffffffffffffffffffffffffffffffffffff021916908373ffffffffffffffffffffffffffffffffffffffff160217905550600954817f894881ae3bd36d98281013ef1fe95333ce447d415f933feceedd695d9175e6373389604051610cc4929190613e12565b60405180910390a3508080610cd890613d9b565b915050610be6565b505b60096000815480929190610cf590613d9b565b91905055506040518061010001604052803373ffffffffffffffffffffffffffffffffffffffff16815260200188815260200187815260200186815260200160011515815260200185815260200184815260200182815250600b6000600954815260200190815260200160002060008201518160000160006101000a81548173ffffffffffffffffffffffffffffffffffffffff021916908373ffffffffffffffffffffffffffffffffffffffff1602179055506020820151816001019081610dbe9190613fee565b50604082015181600201556060820151816003015560808201518160040160006101000a81548160ff02191690831515021790555060a0820151816005019081610e089190613fee565b5060c0820151816006015560e0820151816007019080519060200190610e2f929190612f48565b509050507f0f6c2a5ef0725496d4185a3b20c8dad00524532056afe6a4d7014cbaa983569b6009543389898888604051610e6e969594939291906140c0565b60405180910390a150505050505050565b600080610e8b8361277c565b9050600073ffffffffffffffffffffffffffffffffffffffff168173ffffffffffffffffffffffffffffffffffffffff1603610efc576040517f08c379a0000000000000000000000000000000000000000000000000000000008152600401610ef39061417b565b60405180910390fd5b80915050919050565b60008073ffffffffffffffffffffffffffffffffffffffff168273ffffffffffffffffffffffffffffffffffffffff1603610f75576040517f08c379a0000000000000000000000000000000000000000000000000000000008152600401610f6c9061420d565b60405180910390fd5b600360008373ffffffffffffffffffffffffffffffffffffffff1673ffffffffffffffffffffffffffffffffffffffff168152602001908152602001600020549050919050565b610fc461243d565b610fce60006127b9565b565b6000600760009054906101000a900473ffffffffffffffffffffffffffffffffffffffff16905090565b606060018054611009906138fd565b80601f0160208091040260200160405190810160405280929190818152602001828054611035906138fd565b80156110825780601f1061105757610100808354040283529160200191611082565b820191906000526020600020905b81548152906001019060200180831161106557829003601f168201915b5050505050905090565b600a5481565b6110a461109d611fee565b838361287f565b5050565b6110b96110b3611fee565b836120af565b6110f8576040517f08c379a00000000000000000000000000000000000000000000000000000000081526004016110ef90613ac4565b60405180910390fd5b611104848484846129eb565b50505050565b61111261243d565b8060088190555050565b606061112782611fa3565b6000600660008481526020019081526020016000208054611147906138fd565b80601f0160208091040260200160405190810160405280929190818152602001828054611173906138fd565b80156111c05780601f10611195576101008083540402835291602001916111c0565b820191906000526020600020905b8154815290600101906020018083116111a357829003601f168201915b5050505050905060006111d1612a47565b905060008151036111e6578192505050611229565b60008251111561121b578082604051602001611203929190614269565b60405160208183030381529060405292505050611229565b61122484612a5e565b925050505b919050565b60008211801561124057506009548211155b61127f576040517f08c379a0000000000000000000000000000000000000000000000000000000008152600401611276906142d9565b60405180910390fd5b6000600b600084815260200190815260200160002090508060040160009054906101000a900460ff166112e7576040517f08c379a00000000000000000000000000000000000000000000000000000000081526004016112de90614345565b60405180910390fd5b600081600601541161132e576040517f08c379a0000000000000000000000000000000000000000000000000000000008152600401611325906143b1565b60405180910390fd5b600082118015611342575080600601548211155b611381576040517f08c379a00000000000000000000000000000000000000000000000000000000081526004016113789061441d565b60405180910390fd5b6000816003015483611393919061443d565b90508034146113d7576040517f08c379a00000000000000000000000000000000000000000000000000000000081526004016113ce906144cb565b60405180910390fd5b60008260000160009054906101000a900473ffffffffffffffffffffffffffffffffffffffff1690506000805b84600701805490508110801561141957508582105b1561156a57600085600701828154811061143657611435613de3565b5b906000526020600020015490508373ffffffffffffffffffffffffffffffffffffffff16600c600083815260200190815260200160002060009054906101000a900473ffffffffffffffffffffffffffffffffffffffff1673ffffffffffffffffffffffffffffffffffffffff1603611556576114b4843383612144565b33600c600083815260200190815260200160002060006101000a81548173ffffffffffffffffffffffffffffffffffffffff021916908373ffffffffffffffffffffffffffffffffffffffff160217905550828061151190613d9b565b9350507fd3cc8cf9db2b8627bc6af06a77811eec7a022b85a8044771b6825d57807d5067883383896003015460405161154d94939291906144eb565b60405180910390a15b50808061156290613d9b565b915050611404565b508481146115ad576040517f08c379a00000000000000000000000000000000000000000000000000000000081526004016115a49061457c565b60405180910390fd5b60008273ffffffffffffffffffffffffffffffffffffffff16346040516115d390613b81565b60006040518083038185875af1925050503d8060008114611610576040519150601f19603f3d011682016040523d82523d6000602084013e611615565b606091505b5050905080611659576040517f08c379a0000000000000000000000000000000000000000000000000000000008152600401611650906145e8565b60405180910390fd5b8585600601600082825461166d9190614608565b92505081905550600085600601540361169e5760008560040160006101000a81548160ff0219169083151502179055505b50505050505050565b6000811180156116b957506009548111155b6116f8576040517f08c379a00000000000000000000000000000000000000000000000000000000081526004016116ef906142d9565b60405180910390fd5b6000600b600083815260200190815260200160002090508060040160009054906101000a900460ff16611760576040517f08c379a000000000000000000000000000000000000000000000000000000000815260040161175790614345565b60405180910390fd5b806002015434146117a6576040517f08c379a000000000000000000000000000000000000000000000000000000000815260040161179d906144cb565b60405180910390fd5b60008160000160009054906101000a900473ffffffffffffffffffffffffffffffffffffffff169050338260000160006101000a81548173ffffffffffffffffffffffffffffffffffffffff021916908373ffffffffffffffffffffffffffffffffffffffff16021790555060008260040160006101000a81548160ff02191690831515021790555060008173ffffffffffffffffffffffffffffffffffffffff163460405161185590613b81565b60006040518083038185875af1925050503d8060008114611892576040519150601f19603f3d011682016040523d82523d6000602084013e611897565b606091505b50509050806118db576040517f08c379a00000000000000000000000000000000000000000000000000000000081526004016118d2906145e8565b60405180910390fd5b7ff240bec15fb695f4a5d675ef66f2bf676a48b0068617c8718d7d6bbcc8adaf27843385600201546040516119129392919061463c565b60405180910390a150505050565b60095481565b600b6020528060005260406000206000915090508060000160009054906101000a900473ffffffffffffffffffffffffffffffffffffffff169080600101805461196f906138fd565b80601f016020809104026020016040519081016040528092919081815260200182805461199b906138fd565b80156119e85780601f106119bd576101008083540402835291602001916119e8565b820191906000526020600020905b8154815290600101906020018083116119cb57829003601f168201915b5050505050908060020154908060030154908060040160009054906101000a900460ff1690806005018054611a1c906138fd565b80601f0160208091040260200160405190810160405280929190818152602001828054611a48906138fd565b8015611a955780601f10611a6a57610100808354040283529160200191611a95565b820191906000526020600020905b815481529060010190602001808311611a7857829003601f168201915b5050505050908060060154905087565b6000600560008473ffffffffffffffffffffffffffffffffffffffff1673ffffffffffffffffffffffffffffffffffffffff16815260200190815260200160002060008373ffffffffffffffffffffffffffffffffffffffff1673ffffffffffffffffffffffffffffffffffffffff16815260200190815260200160002060009054906101000a900460ff16905092915050565b600060606000806000606060006060600089118015611b5a57506009548911155b611b99576040517f08c379a0000000000000000000000000000000000000000000000000000000008152600401611b90906142d9565b60405180910390fd5b6000600b60008b8152602001908152602001600020604051806101000160405290816000820160009054906101000a900473ffffffffffffffffffffffffffffffffffffffff1673ffffffffffffffffffffffffffffffffffffffff1673ffffffffffffffffffffffffffffffffffffffff168152602001600182018054611c20906138fd565b80601f0160208091040260200160405190810160405280929190818152602001828054611c4c906138fd565b8015611c995780601f10611c6e57610100808354040283529160200191611c99565b820191906000526020600020905b815481529060010190602001808311611c7c57829003601f168201915b5050505050815260200160028201548152602001600382015481526020016004820160009054906101000a900460ff16151515158152602001600582018054611ce1906138fd565b80601f0160208091040260200160405190810160405280929190818152602001828054611d0d906138fd565b8015611d5a5780601f10611d2f57610100808354040283529160200191611d5a565b820191906000526020600020905b815481529060010190602001808311611d3d57829003601f168201915b505050505081526020016006820154815260200160078201805480602002602001604051908101604052809291908181526020018280548015611dbc57602002820191906000526020600020905b815481526020019060010190808311611da8575b5050505050815250509050806000015181602001518260400151836060015184608001518560a001518660c001518760e001519850985098509850985098509850985050919395975091939597565b611e1361243d565b600073ffffffffffffffffffffffffffffffffffffffff168173ffffffffffffffffffffffffffffffffffffffff1603611e82576040517f08c379a0000000000000000000000000000000000000000000000000000000008152600401611e79906146e5565b60405180910390fd5b611e8b816127b9565b50565b600c6020528060005260406000206000915054906101000a900473ffffffffffffffffffffffffffffffffffffffff1681565b60007f80ac58cd000000000000000000000000000000000000000000000000000000007bffffffffffffffffffffffffffffffffffffffffffffffffffffffff1916827bffffffffffffffffffffffffffffffffffffffffffffffffffffffff19161480611f8c57507f5b5e139f000000000000000000000000000000000000000000000000000000007bffffffffffffffffffffffffffffffffffffffffffffffffffffffff1916827bffffffffffffffffffffffffffffffffffffffffffffffffffffffff1916145b80611f9c5750611f9b82612ac6565b5b9050919050565b611fac81612b30565b611feb576040517f08c379a0000000000000000000000000000000000000000000000000000000008152600401611fe29061417b565b60405180910390fd5b50565b600033905090565b816004600083815260200190815260200160002060006101000a81548173ffffffffffffffffffffffffffffffffffffffff021916908373ffffffffffffffffffffffffffffffffffffffff160217905550808273ffffffffffffffffffffffffffffffffffffffff1661206983610e7f565b73ffffffffffffffffffffffffffffffffffffffff167f8c5be1e5ebec7d5bd14f71427d1e84f3dd0314c0f7b2291e5b200ac8c7c3b92560405160405180910390a45050565b6000806120bb83610e7f565b90508073ffffffffffffffffffffffffffffffffffffffff168473ffffffffffffffffffffffffffffffffffffffff1614806120fd57506120fc8185611aa5565b5b8061213b57508373ffffffffffffffffffffffffffffffffffffffff1661212384610769565b73ffffffffffffffffffffffffffffffffffffffff16145b91505092915050565b8273ffffffffffffffffffffffffffffffffffffffff1661216482610e7f565b73ffffffffffffffffffffffffffffffffffffffff16146121ba576040517f08c379a00000000000000000000000000000000000000000000000000000000081526004016121b190614777565b60405180910390fd5b600073ffffffffffffffffffffffffffffffffffffffff168273ffffffffffffffffffffffffffffffffffffffff1603612229576040517f08c379a000000000000000000000000000000000000000000000000000000000815260040161222090614809565b60405180910390fd5b6122368383836001612b71565b8273ffffffffffffffffffffffffffffffffffffffff1661225682610e7f565b73ffffffffffffffffffffffffffffffffffffffff16146122ac576040517f08c379a00000000000000000000000000000000000000000000000000000000081526004016122a390614777565b60405180910390fd5b6004600082815260200190815260200160002060006101000a81549073ffffffffffffffffffffffffffffffffffffffff02191690556001600360008573ffffffffffffffffffffffffffffffffffffffff1673ffffffffffffffffffffffffffffffffffffffff168152602001908152602001600020600082825403925050819055506001600360008473ffffffffffffffffffffffffffffffffffffffff1673ffffffffffffffffffffffffffffffffffffffff16815260200190815260200160002060008282540192505081905550816002600083815260200190815260200160002060006101000a81548173ffffffffffffffffffffffffffffffffffffffff021916908373ffffffffffffffffffffffffffffffffffffffff160217905550808273ffffffffffffffffffffffffffffffffffffffff168473ffffffffffffffffffffffffffffffffffffffff167fddf252ad1be2c89b69c2b068fc378daa952ba7f163c4a11628f55a4df523b3ef60405160405180910390a46124388383836001612b77565b505050565b612445611fee565b73ffffffffffffffffffffffffffffffffffffffff16612463610fd0565b73ffffffffffffffffffffffffffffffffffffffff16146124b9576040517f08c379a00000000000000000000000000000000000000000000000000000000081526004016124b090614875565b60405180910390fd5b565b600073ffffffffffffffffffffffffffffffffffffffff168273ffffffffffffffffffffffffffffffffffffffff160361252a576040517f08c379a0000000000000000000000000000000000000000000000000000000008152600401612521906148e1565b60405180910390fd5b61253381612b30565b15612573576040517f08c379a000000000000000000000000000000000000000000000000000000000815260040161256a9061494d565b60405180910390fd5b612581600083836001612b71565b61258a81612b30565b156125ca576040517f08c379a00000000000000000000000000000000000000000000000000000000081526004016125c19061494d565b60405180910390fd5b6001600360008473ffffffffffffffffffffffffffffffffffffffff1673ffffffffffffffffffffffffffffffffffffffff16815260200190815260200160002060008282540192505081905550816002600083815260200190815260200160002060006101000a81548173ffffffffffffffffffffffffffffffffffffffff021916908373ffffffffffffffffffffffffffffffffffffffff160217905550808273ffffffffffffffffffffffffffffffffffffffff16600073ffffffffffffffffffffffffffffffffffffffff167fddf252ad1be2c89b69c2b068fc378daa952ba7f163c4a11628f55a4df523b3ef60405160405180910390a46126d4600083836001612b77565b5050565b6126e182612b30565b612720576040517f08c379a0000000000000000000000000000000000000000000000000000000008152600401612717906149df565b60405180910390fd5b806006600084815260200190815260200160002090816127409190613fee565b507ff8e1a15aba9398e019f0b49df1a4fde98ee17ae345cb5f6b5e2c27f5033e8ce782604051612770919061326d565b60405180910390a15050565b60006002600083815260200190815260200160002060009054906101000a900473ffffffffffffffffffffffffffffffffffffffff169050919050565b6000600760009054906101000a900473ffffffffffffffffffffffffffffffffffffffff16905081600760006101000a81548173ffffffffffffffffffffffffffffffffffffffff021916908373ffffffffffffffffffffffffffffffffffffffff1602179055508173ffffffffffffffffffffffffffffffffffffffff168173ffffffffffffffffffffffffffffffffffffffff167f8be0079c531659141344cd1fd0a4f28419497f9722a3daafe3b4186f6b6457e060405160405180910390a35050565b8173ffffffffffffffffffffffffffffffffffffffff168373ffffffffffffffffffffffffffffffffffffffff16036128ed576040517f08c379a00000000000000000000000000000000000000000000000000000000081526004016128e490614a4b565b60405180910390fd5b80600560008573ffffffffffffffffffffffffffffffffffffffff1673ffffffffffffffffffffffffffffffffffffffff16815260200190815260200160002060008473ffffffffffffffffffffffffffffffffffffffff1673ffffffffffffffffffffffffffffffffffffffff16815260200190815260200160002060006101000a81548160ff0219169083151502179055508173ffffffffffffffffffffffffffffffffffffffff168373ffffffffffffffffffffffffffffffffffffffff167f17307eab39ab6107e8899845ad3d59bd9653f200f220920489ca2b5937696c31836040516129de9190613066565b60405180910390a3505050565b6129f6848484612144565b612a0284848484612b7d565b612a41576040517f08c379a0000000000000000000000000000000000000000000000000000000008152600401612a3890614add565b60405180910390fd5b50505050565b606060405180602001604052806000815250905090565b6060612a6982611fa3565b6000612a73612a47565b90506000815111612a935760405180602001604052806000815250612abe565b80612a9d84612d04565b604051602001612aae929190614269565b6040516020818303038152906040525b915050919050565b60007f01ffc9a7000000000000000000000000000000000000000000000000000000007bffffffffffffffffffffffffffffffffffffffffffffffffffffffff1916827bffffffffffffffffffffffffffffffffffffffffffffffffffffffff1916149050919050565b60008073ffffffffffffffffffffffffffffffffffffffff16612b528361277c565b73ffffffffffffffffffffffffffffffffffffffff1614159050919050565b50505050565b50505050565b6000612b9e8473ffffffffffffffffffffffffffffffffffffffff16612dd2565b15612cf7578373ffffffffffffffffffffffffffffffffffffffff1663150b7a02612bc7611fee565b8786866040518563ffffffff1660e01b8152600401612be99493929190614b52565b6020604051808303816000875af1925050508015612c2557506040513d601f19601f82011682018060405250810190612c229190614bb3565b60015b612ca7573d8060008114612c55576040519150601f19603f3d011682016040523d82523d6000602084013e612c5a565b606091505b506000815103612c9f576040517f08c379a0000000000000000000000000000000000000000000000000000000008152600401612c9690614add565b60405180910390fd5b805181602001fd5b63150b7a0260e01b7bffffffffffffffffffffffffffffffffffffffffffffffffffffffff1916817bffffffffffffffffffffffffffffffffffffffffffffffffffffffff191614915050612cfc565b600190505b949350505050565b606060006001612d1384612df5565b01905060008167ffffffffffffffff811115612d3257612d316132e5565b5b6040519080825280601f01601f191660200182016040528015612d645781602001600182028036833780820191505090505b509050600082602001820190505b600115612dc7578080600190039150507f3031323334353637383961626364656600000000000000000000000000000000600a86061a8153600a8581612dbb57612dba614be0565b5b04945060008503612d72575b819350505050919050565b6000808273ffffffffffffffffffffffffffffffffffffffff163b119050919050565b600080600090507a184f03e93ff9f4daa797ed6e38ed64bf6a1f0100000000000000008310612e53577a184f03e93ff9f4daa797ed6e38ed64bf6a1f0100000000000000008381612e4957612e48614be0565b5b0492506040810190505b6d04ee2d6d415b85acef81000000008310612e90576d04ee2d6d415b85acef81000000008381612e8657612e85614be0565b5b0492506020810190505b662386f26fc100008310612ebf57662386f26fc100008381612eb557612eb4614be0565b5b0492506010810190505b6305f5e1008310612ee8576305f5e1008381612ede57612edd614be0565b5b0492506008810190505b6127108310612f0d576127108381612f0357612f02614be0565b5b0492506004810190505b60648310612f305760648381612f2657612f25614be0565b5b0492506002810190505b600a8310612f3f576001810190505b80915050919050565b828054828255906000526020600020908101928215612f84579160200282015b82811115612f83578251825591602001919060010190612f68565b5b509050612f919190612f95565b5090565b5b80821115612fae576000816000905550600101612f96565b5090565b6000604051905090565b600080fd5b600080fd5b60007fffffffff0000000000000000000000000000000000000000000000000000000082169050919050565b612ffb81612fc6565b811461300657600080fd5b50565b60008135905061301881612ff2565b92915050565b60006020828403121561303457613033612fbc565b5b600061304284828501613009565b91505092915050565b60008115159050919050565b6130608161304b565b82525050565b600060208201905061307b6000830184613057565b92915050565b600081519050919050565b600082825260208201905092915050565b60005b838110156130bb5780820151818401526020810190506130a0565b60008484015250505050565b6000601f19601f8301169050919050565b60006130e382613081565b6130ed818561308c565b93506130fd81856020860161309d565b613106816130c7565b840191505092915050565b6000602082019050818103600083015261312b81846130d8565b905092915050565b6000819050919050565b61314681613133565b811461315157600080fd5b50565b6000813590506131638161313d565b92915050565b60006020828403121561317f5761317e612fbc565b5b600061318d84828501613154565b91505092915050565b600073ffffffffffffffffffffffffffffffffffffffff82169050919050565b60006131c182613196565b9050919050565b6131d1816131b6565b82525050565b60006020820190506131ec60008301846131c8565b92915050565b6131fb816131b6565b811461320657600080fd5b50565b600081359050613218816131f2565b92915050565b6000806040838503121561323557613234612fbc565b5b600061324385828601613209565b925050602061325485828601613154565b9150509250929050565b61326781613133565b82525050565b6000602082019050613282600083018461325e565b92915050565b6000806000606084860312156132a1576132a0612fbc565b5b60006132af86828701613209565b93505060206132c086828701613209565b92505060406132d186828701613154565b9150509250925092565b600080fd5b600080fd5b7f4e487b7100000000000000000000000000000000000000000000000000000000600052604160045260246000fd5b61331d826130c7565b810181811067ffffffffffffffff8211171561333c5761333b6132e5565b5b80604052505050565b600061334f612fb2565b905061335b8282613314565b919050565b600067ffffffffffffffff82111561337b5761337a6132e5565b5b613384826130c7565b9050602081019050919050565b82818337600083830152505050565b60006133b36133ae84613360565b613345565b9050828152602081018484840111156133cf576133ce6132e0565b5b6133da848285613391565b509392505050565b600082601f8301126133f7576133f66132db565b5b81356134078482602086016133a0565b91505092915050565b600080600080600060a0868803121561342c5761342b612fbc565b5b600086013567ffffffffffffffff81111561344a57613449612fc1565b5b613456888289016133e2565b955050602061346788828901613154565b945050604061347888828901613154565b935050606086013567ffffffffffffffff81111561349957613498612fc1565b5b6134a5888289016133e2565b92505060806134b688828901613154565b9150509295509295909350565b6000602082840312156134d9576134d8612fbc565b5b60006134e784828501613209565b91505092915050565b6134f98161304b565b811461350457600080fd5b50565b600081359050613516816134f0565b92915050565b6000806040838503121561353357613532612fbc565b5b600061354185828601613209565b925050602061355285828601613507565b9150509250929050565b600067ffffffffffffffff821115613577576135766132e5565b5b613580826130c7565b9050602081019050919050565b60006135a061359b8461355c565b613345565b9050828152602081018484840111156135bc576135bb6132e0565b5b6135c7848285613391565b509392505050565b600082601f8301126135e4576135e36132db565b5b81356135f484826020860161358d565b91505092915050565b6000806000806080858703121561361757613616612fbc565b5b600061362587828801613209565b945050602061363687828801613209565b935050604061364787828801613154565b925050606085013567ffffffffffffffff81111561366857613667612fc1565b5b613674878288016135cf565b91505092959194509250565b6000806040838503121561369757613696612fbc565b5b60006136a585828601613154565b92505060206136b685828601613154565b9150509250929050565b600060e0820190506136d5600083018a6131c8565b81810360208301526136e781896130d8565b90506136f6604083018861325e565b613703606083018761325e565b6137106080830186613057565b81810360a083015261372281856130d8565b905061373160c083018461325e565b98975050505050505050565b6000806040838503121561375457613753612fbc565b5b600061376285828601613209565b925050602061377385828601613209565b9150509250929050565b600081519050919050565b600082825260208201905092915050565b6000819050602082019050919050565b6137b281613133565b82525050565b60006137c483836137a9565b60208301905092915050565b6000602082019050919050565b60006137e88261377d565b6137f28185613788565b93506137fd83613799565b8060005b8381101561382e57815161381588826137b8565b9750613820836137d0565b925050600181019050613801565b5085935050505092915050565b600061010082019050613851600083018b6131c8565b8181036020830152613863818a6130d8565b9050613872604083018961325e565b61387f606083018861325e565b61388c6080830187613057565b81810360a083015261389e81866130d8565b90506138ad60c083018561325e565b81810360e08301526138bf81846137dd565b90509998505050505050505050565b7f4e487b7100000000000000000000000000000000000000000000000000000000600052602260045260246000fd5b6000600282049050600182168061391557607f821691505b602082108103613928576139276138ce565b5b50919050565b7f4552433732313a20617070726f76616c20746f2063757272656e74206f776e6560008201527f7200000000000000000000000000000000000000000000000000000000000000602082015250565b600061398a60218361308c565b91506139958261392e565b604082019050919050565b600060208201905081810360008301526139b98161397d565b9050919050565b7f4552433732313a20617070726f76652063616c6c6572206973206e6f7420746f60008201527f6b656e206f776e6572206f7220617070726f76656420666f7220616c6c000000602082015250565b6000613a1c603d8361308c565b9150613a27826139c0565b604082019050919050565b60006020820190508181036000830152613a4b81613a0f565b9050919050565b7f4552433732313a2063616c6c6572206973206e6f7420746f6b656e206f776e6560008201527f72206f7220617070726f76656400000000000000000000000000000000000000602082015250565b6000613aae602d8361308c565b9150613ab982613a52565b604082019050919050565b60006020820190508181036000830152613add81613aa1565b9050919050565b7f4e6f2066756e647320746f207769746864726177000000000000000000000000600082015250565b6000613b1a60148361308c565b9150613b2582613ae4565b602082019050919050565b60006020820190508181036000830152613b4981613b0d565b9050919050565b600081905092915050565b50565b6000613b6b600083613b50565b9150613b7682613b5b565b600082019050919050565b6000613b8c82613b5e565b9150819050919050565b7f5769746864726177206661696c65640000000000000000000000000000000000600082015250565b6000613bcc600f8361308c565b9150613bd782613b96565b602082019050919050565b60006020820190508181036000830152613bfb81613bbf565b9050919050565b7f496e636f727265637420726567697374726174696f6e2066656520616d6f756e60008201527f7400000000000000000000000000000000000000000000000000000000000000602082015250565b6000613c5e60218361308c565b9150613c6982613c02565b604082019050919050565b60006020820190508181036000830152613c8d81613c51565b9050919050565b7f5472616e7366657220746f206f776e6572206661696c65640000000000000000600082015250565b6000613cca60188361308c565b9150613cd582613c94565b602082019050919050565b60006020820190508181036000830152613cf981613cbd565b9050919050565b7f4e4654207072696365206d757374206265207365740000000000000000000000600082015250565b6000613d3660158361308c565b9150613d4182613d00565b602082019050919050565b60006020820190508181036000830152613d6581613d29565b9050919050565b7f4e487b7100000000000000000000000000000000000000000000000000000000600052601160045260246000fd5b6000613da682613133565b91507fffffffffffffffffffffffffffffffffffffffffffffffffffffffffffffffff8203613dd857613dd7613d6c565b5b600182019050919050565b7f4e487b7100000000000000000000000000000000000000000000000000000000600052603260045260246000fd5b6000604082019050613e2760008301856131c8565b8181036020830152613e3981846130d8565b90509392505050565b60008190508160005260206000209050919050565b60006020601f8301049050919050565b600082821b905092915050565b600060088302613ea47fffffffffffffffffffffffffffffffffffffffffffffffffffffffffffffffff82613e67565b613eae8683613e67565b95508019841693508086168417925050509392505050565b6000819050919050565b6000613eeb613ee6613ee184613133565b613ec6565b613133565b9050919050565b6000819050919050565b613f0583613ed0565b613f19613f1182613ef2565b848454613e74565b825550505050565b600090565b613f2e613f21565b613f39818484613efc565b505050565b5b81811015613f5d57613f52600082613f26565b600181019050613f3f565b5050565b601f821115613fa257613f7381613e42565b613f7c84613e57565b81016020851015613f8b578190505b613f9f613f9785613e57565b830182613f3e565b50505b505050565b600082821c905092915050565b6000613fc560001984600802613fa7565b1980831691505092915050565b6000613fde8383613fb4565b9150826002028217905092915050565b613ff782613081565b67ffffffffffffffff8111156140105761400f6132e5565b5b61401a82546138fd565b614025828285613f61565b600060209050601f8311600181146140585760008415614046578287015190505b6140508582613fd2565b8655506140b8565b601f19841661406686613e42565b60005b8281101561408e57848901518255600182019150602085019450602081019050614069565b868310156140ab57848901516140a7601f891682613fb4565b8355505b6001600288020188555050505b505050505050565b600060c0820190506140d5600083018961325e565b6140e260208301886131c8565b81810360408301526140f481876130d8565b9050614103606083018661325e565b818103608083015261411581856130d8565b905061412460a083018461325e565b979650505050505050565b7f4552433732313a20696e76616c696420746f6b656e2049440000000000000000600082015250565b600061416560188361308c565b91506141708261412f565b602082019050919050565b6000602082019050818103600083015261419481614158565b9050919050565b7f4552433732313a2061646472657373207a65726f206973206e6f74206120766160008201527f6c6964206f776e65720000000000000000000000000000000000000000000000602082015250565b60006141f760298361308c565b91506142028261419b565b604082019050919050565b60006020820190508181036000830152614226816141ea565b9050919050565b600081905092915050565b600061424382613081565b61424d818561422d565b935061425d81856020860161309d565b80840191505092915050565b60006142758285614238565b91506142818284614238565b91508190509392505050565b7f496e76616c6964206c616e642049440000000000000000000000000000000000600082015250565b60006142c3600f8361308c565b91506142ce8261428d565b602082019050919050565b600060208201905081810360008301526142f2816142b6565b9050919050565b7f4c616e64206973206e6f7420617661696c61626c6520666f722073616c650000600082015250565b600061432f601e8361308c565b915061433a826142f9565b602082019050919050565b6000602082019050818103600083015261435e81614322565b9050919050565b7f54686973206c616e6420646f6573206e6f742068617665204e46547300000000600082015250565b600061439b601c8361308c565b91506143a682614365565b602082019050919050565b600060208201905081810360008301526143ca8161438e565b9050919050565b7f496e76616c696420746f6b656e20616d6f756e74000000000000000000000000600082015250565b600061440760148361308c565b9150614412826143d1565b602082019050919050565b60006020820190508181036000830152614436816143fa565b9050919050565b600061444882613133565b915061445383613133565b925082820261446181613133565b9150828204841483151761447857614477613d6c565b5b5092915050565b7f496e636f72726563742045544820616d6f756e742073656e7400000000000000600082015250565b60006144b560198361308c565b91506144c08261447f565b602082019050919050565b600060208201905081810360008301526144e4816144a8565b9050919050565b6000608082019050614500600083018761325e565b61450d60208301866131c8565b61451a604083018561325e565b614527606083018461325e565b95945050505050565b7f4e6f7420656e6f75676820617661696c61626c6520746f6b656e730000000000600082015250565b6000614566601b8361308c565b915061457182614530565b602082019050919050565b6000602082019050818103600083015261459581614559565b9050919050565b7f5472616e7366657220746f2073656c6c6572206661696c656400000000000000600082015250565b60006145d260198361308c565b91506145dd8261459c565b602082019050919050565b60006020820190508181036000830152614601816145c5565b9050919050565b600061461382613133565b915061461e83613133565b925082820390508181111561463657614635613d6c565b5b92915050565b6000606082019050614651600083018661325e565b61465e60208301856131c8565b61466b604083018461325e565b949350505050565b7f4f776e61626c653a206e6577206f776e657220697320746865207a65726f206160008201527f6464726573730000000000000000000000000000000000000000000000000000602082015250565b60006146cf60268361308c565b91506146da82614673565b604082019050919050565b600060208201905081810360008301526146fe816146c2565b9050919050565b7f4552433732313a207472616e736665722066726f6d20696e636f72726563742060008201527f6f776e6572000000000000000000000000000000000000000000000000000000602082015250565b600061476160258361308c565b915061476c82614705565b604082019050919050565b6000602082019050818103600083015261479081614754565b9050919050565b7f4552433732313a207472616e7366657220746f20746865207a65726f2061646460008201527f7265737300000000000000000000000000000000000000000000000000000000602082015250565b60006147f360248361308c565b91506147fe82614797565b604082019050919050565b60006020820190508181036000830152614822816147e6565b9050919050565b7f4f776e61626c653a2063616c6c6572206973206e6f7420746865206f776e6572600082015250565b600061485f60208361308c565b915061486a82614829565b602082019050919050565b6000602082019050818103600083015261488e81614852565b9050919050565b7f4552433732313a206d696e7420746f20746865207a65726f2061646472657373600082015250565b60006148cb60208361308c565b91506148d682614895565b602082019050919050565b600060208201905081810360008301526148fa816148be565b9050919050565b7f4552433732313a20746f6b656e20616c7265616479206d696e74656400000000600082015250565b6000614937601c8361308c565b915061494282614901565b602082019050919050565b600060208201905081810360008301526149668161492a565b9050919050565b7f45524337323155524953746f726167653a2055524920736574206f66206e6f6e60008201527f6578697374656e7420746f6b656e000000000000000000000000000000000000602082015250565b60006149c9602e8361308c565b91506149d48261496d565b604082019050919050565b600060208201905081810360008301526149f8816149bc565b9050919050565b7f4552433732313a20617070726f766520746f2063616c6c657200000000000000600082015250565b6000614a3560198361308c565b9150614a40826149ff565b602082019050919050565b60006020820190508181036000830152614a6481614a28565b9050919050565b7f4552433732313a207472616e7366657220746f206e6f6e20455243373231526560008201527f63656976657220696d706c656d656e7465720000000000000000000000000000602082015250565b6000614ac760328361308c565b9150614ad282614a6b565b604082019050919050565b60006020820190508181036000830152614af681614aba565b9050919050565b600081519050919050565b600082825260208201905092915050565b6000614b2482614afd565b614b2e8185614b08565b9350614b3e81856020860161309d565b614b47816130c7565b840191505092915050565b6000608082019050614b6760008301876131c8565b614b7460208301866131c8565b614b81604083018561325e565b8181036060830152614b938184614b19565b905095945050505050565b600081519050614bad81612ff2565b92915050565b600060208284031215614bc957614bc8612fbc565b5b6000614bd784828501614b9e565b91505092915050565b7f4e487b7100000000000000000000000000000000000000000000000000000000600052601260045260246000fdfea264697066735822122006a7edb11e985f15d8aace81a1e7a928fd405ac51938310a0fd06106f694aa0864736f6c63430008130033",
  "immutableReferences": {},
  "source": "// SPDX-License-Identifier: MIT\r\npragma solidity ^0.8.19;\r\n\r\nimport \"@openzeppelin/contracts/token/ERC721/extensions/ERC721URIStorage.sol\";\r\nimport \"@openzeppelin/contracts/access/Ownable.sol\";\r\n\r\ncontract LandRegistrye is ERC721URIStorage, Ownable {\r\n    uint256 public registrationFee = 0.01 ether;\r\n    uint256 public landCount = 0;\r\n    uint256 public tokenIdCounter = 1;\r\n\r\n    struct Land {\r\n        address owner;\r\n        string location;\r\n        uint256 price; // Total price for whole land (if no NFTs)\r\n        uint256 pricePerToken; // Price per NFT token (if NFTs exist)\r\n        bool isAvailable;\r\n        string cid; // IPFS CID for document\r\n        uint256 tokenCount; // NFT tokens count (0 means no NFT)\r\n        uint256[] tokenIds; // NFT token IDs\r\n    }\r\n\r\n    mapping(uint256 => Land) public lands;\r\n    mapping(uint256 => address) public tokenOwners; // Track NFT ownership\r\n\r\n    event LandRegistered(uint256 landId, address owner, string location, uint256 price, string cid, uint256 tokenCount);\r\n    event LandTokenBought(uint256 landId, address newOwner, uint256 tokenId, uint256 price);\r\n    event LandBought(uint256 landId, address newOwner, uint256 price);\r\n    event NFTMinted(uint256 indexed tokenId, uint256 indexed landId, address owner, string tokenURI);\r\n\r\n    constructor() ERC721(\"LandNFT\", \"LND\") Ownable() {}\r\n\r\n    function registerLand(\r\n        string memory _location,\r\n        uint256 _price,\r\n        uint256 _pricePerToken,\r\n        string memory _cid,\r\n        uint256 _tokenCount\r\n    ) public payable {\r\n        require(msg.value == registrationFee, \"Incorrect registration fee amount\");\r\n\r\n        // Transfer registration fee to contract owner\r\n        (bool success, ) = payable(owner()).call{value: msg.value}(\"\");\r\n        require(success, \"Transfer to owner failed\");\r\n\r\n        uint256[] memory tokenIds = new uint256[](_tokenCount);\r\n\r\n        // Mint NFTs if applicable\r\n        if (_tokenCount > 0) {\r\n            require(_pricePerToken > 0, \"NFT price must be set\");\r\n            for (uint256 i = 0; i < _tokenCount; i++) {\r\n                uint256 newTokenId = tokenIdCounter++;\r\n                _mint(msg.sender, newTokenId);\r\n                _setTokenURI(newTokenId, _cid);\r\n                tokenIds[i] = newTokenId;\r\n                tokenOwners[newTokenId] = msg.sender;\r\n\r\n                emit NFTMinted(newTokenId, landCount, msg.sender, _cid);\r\n            }\r\n        }\r\n        landCount++;\r\n        lands[landCount] = Land(msg.sender, _location, _price, _pricePerToken, true, _cid, _tokenCount, tokenIds);\r\n        emit LandRegistered(landCount, msg.sender, _location, _price, _cid, _tokenCount);\r\n    }\r\n\r\n    /// @notice Buy the whole land without NFT tokens\r\n    function buyLandWithoutNFT(uint256 _landId) public payable {\r\n        require(_landId > 0 && _landId <= landCount, \"Invalid land ID\");\r\n\r\n        Land storage land = lands[_landId];\r\n        require(land.isAvailable, \"Land is not available for sale\");\r\n        require(msg.value == land.price, \"Incorrect ETH amount sent\");\r\n\r\n        address previousOwner = land.owner;\r\n\r\n        // Transfer ownership\r\n        land.owner = msg.sender;\r\n        land.isAvailable = false;\r\n\r\n        // Transfer payment to seller\r\n        (bool success, ) = payable(previousOwner).call{value: msg.value}(\"\");\r\n        require(success, \"Transfer to seller failed\");\r\n\r\n        emit LandBought(_landId, msg.sender, land.price);\r\n    }\r\n\r\n    /// @notice Buy specific number of NFT tokens from the land\r\n    function buyLandTokens(uint256 _landId, uint256 _tokensToBuy) public payable {\r\n        require(_landId > 0 && _landId <= landCount, \"Invalid land ID\");\r\n        \r\n        Land storage land = lands[_landId];\r\n        require(land.isAvailable, \"Land is not available for sale\");\r\n        require(land.tokenCount > 0, \"This land does not have NFTs\");\r\n        require(_tokensToBuy > 0 && _tokensToBuy <= land.tokenCount, \"Invalid token amount\");\r\n        \r\n        uint256 totalPrice = _tokensToBuy * land.pricePerToken;\r\n        require(msg.value == totalPrice, \"Incorrect ETH amount sent\");\r\n\r\n        address previousOwner = land.owner;\r\n        uint256 tokensTransferred = 0;\r\n\r\n        // Transfer NFT tokens\r\n        for (uint256 i = 0; i < land.tokenIds.length && tokensTransferred < _tokensToBuy; i++) {\r\n            uint256 tokenId = land.tokenIds[i];\r\n\r\n            if (tokenOwners[tokenId] == previousOwner) {\r\n                _transfer(previousOwner, msg.sender, tokenId);\r\n                tokenOwners[tokenId] = msg.sender;\r\n                tokensTransferred++;\r\n\r\n                emit LandTokenBought(_landId, msg.sender, tokenId, land.pricePerToken);\r\n            }\r\n        }\r\n\r\n        require(tokensTransferred == _tokensToBuy, \"Not enough available tokens\");\r\n\r\n        // Transfer payment to seller\r\n        (bool success, ) = payable(previousOwner).call{value: msg.value}(\"\");\r\n        require(success, \"Transfer to seller failed\");\r\n\r\n        // Update remaining token count\r\n        land.tokenCount -= _tokensToBuy;\r\n        if (land.tokenCount == 0) {\r\n            land.isAvailable = false; // Mark land as sold out\r\n        }\r\n    }\r\n\r\n    function getLand(uint256 _landId) public view returns (address, string memory, uint256, uint256, bool, string memory, uint256, uint256[] memory) {\r\n        require(_landId > 0 && _landId <= landCount, \"Invalid land ID\");\r\n        Land memory land = lands[_landId];\r\n        return (land.owner, land.location, land.price, land.pricePerToken, land.isAvailable, land.cid, land.tokenCount, land.tokenIds);\r\n    }\r\n\r\n    function setRegistrationFee(uint256 _newFee) public onlyOwner {\r\n        registrationFee = _newFee;\r\n    }\r\n\r\n    function withdraw() public onlyOwner {\r\n        uint256 balance = address(this).balance;\r\n        require(balance > 0, \"No funds to withdraw\");\r\n\r\n        (bool success, ) = payable(owner()).call{value: balance}(\"\");\r\n        require(success, \"Withdraw failed\");\r\n    }\r\n}\r\n",
  "sourcePath": "D:\\coding\\Javascript\\react\\land-registry-dapp\\contracts\\landregistrye.sol",
  "compiler": {
    "name": "solc",
    "version": "0.8.19+commit.7dd6d404.Emscripten.clang"
  },
  "schemaVersion": "3.4.16",
  "updatedAt": "2025-02-24T15:03:15.443Z",
  "networkType": "ethereum",
  "devdoc": {
    "events": {
      "Approval(address,address,uint256)": {
        "details": "Emitted when `owner` enables `approved` to manage the `tokenId` token."
      },
      "ApprovalForAll(address,address,bool)": {
        "details": "Emitted when `owner` enables or disables (`approved`) `operator` to manage all of its assets."
      },
      "BatchMetadataUpdate(uint256,uint256)": {
        "details": "This event emits when the metadata of a range of tokens is changed. So that the third-party platforms such as NFT market could timely update the images and related attributes of the NFTs."
      },
      "MetadataUpdate(uint256)": {
        "details": "This event emits when the metadata of a token is changed. So that the third-party platforms such as NFT market could timely update the images and related attributes of the NFT."
      },
      "Transfer(address,address,uint256)": {
        "details": "Emitted when `tokenId` token is transferred from `from` to `to`."
      }
    },
    "kind": "dev",
    "methods": {
      "approve(address,uint256)": {
        "details": "See {IERC721-approve}."
      },
      "balanceOf(address)": {
        "details": "See {IERC721-balanceOf}."
      },
      "getApproved(uint256)": {
        "details": "See {IERC721-getApproved}."
      },
      "isApprovedForAll(address,address)": {
        "details": "See {IERC721-isApprovedForAll}."
      },
      "name()": {
        "details": "See {IERC721Metadata-name}."
      },
      "owner()": {
        "details": "Returns the address of the current owner."
      },
      "ownerOf(uint256)": {
        "details": "See {IERC721-ownerOf}."
      },
      "renounceOwnership()": {
        "details": "Leaves the contract without owner. It will not be possible to call `onlyOwner` functions. Can only be called by the current owner. NOTE: Renouncing ownership will leave the contract without an owner, thereby disabling any functionality that is only available to the owner."
      },
      "safeTransferFrom(address,address,uint256)": {
        "details": "See {IERC721-safeTransferFrom}."
      },
      "safeTransferFrom(address,address,uint256,bytes)": {
        "details": "See {IERC721-safeTransferFrom}."
      },
      "setApprovalForAll(address,bool)": {
        "details": "See {IERC721-setApprovalForAll}."
      },
      "supportsInterface(bytes4)": {
        "details": "See {IERC165-supportsInterface}"
      },
      "symbol()": {
        "details": "See {IERC721Metadata-symbol}."
      },
      "tokenURI(uint256)": {
        "details": "See {IERC721Metadata-tokenURI}."
      },
      "transferFrom(address,address,uint256)": {
        "details": "See {IERC721-transferFrom}."
      },
      "transferOwnership(address)": {
        "details": "Transfers ownership of the contract to a new account (`newOwner`). Can only be called by the current owner."
      }
    },
    "version": 1
  },
  "userdoc": {
    "kind": "user",
    "methods": {
      "buyLandTokens(uint256,uint256)": {
        "notice": "Buy specific number of NFT tokens from the land"
      },
      "buyLandWithoutNFT(uint256)": {
        "notice": "Buy the whole land without NFT tokens"
      }
    },
    "version": 1
  }
}